:020000040000fa
:080000000001040000000000f3
:020000040000fa
:04000800100e0000d6
:020000040000fa
:04000c00100e0000d2
:020000040000fa
:04001000100e0000ce
:020000040000fa
:04001400100e0000ca
:020000040000fa
:04001800100e0000c6
:020000040000fa
:04001c00100e0000c2
:020000040000fa
:04002000100e0000be
:020000040000fa
:04002400100e0000ba
:020000040000fa
:04002800100e0000b6
:020000040000fa
:04002c00100e0000b2
:020000040000fa
:04003000100e0000ae
:020000040000fa
:04003400b00900000f
:020000040000fa
:04003800100e0000a6
:020000040000fa
:04003c00100e0000a2
:020000040000fa
:04004000100e00009e
:020000040000fa
:04004400de090000d1
:020000040000fa
:04004800100e000096
:020000040000fa
:04004c00100e000092
:020000040000fa
:04005000100e00008e
:020000040000fa
:040054000c0200009a
:020000040000fa
:04005800100e000086
:020000040000fa
:04005c00100e000082
:020000040000fa
:04006000100e00007e
:020000040000fa
:04006400100e00007a
:020000040000fa
:04006800100e000076
:020000040000fa
:04006c00100e000072
:020000040000fa
:04007000100e00006e
:020000040000fa
:040074000c08000074
:020000040000fa
:04007800b0080000cc
:020000040000fa
:04007c00100e000062
:020000040000fa
:04008000100e00005e
:020000040000fa
:04008400100e00005a
:020000040000fa
:04008800100e000056
:020000040000fa
:04008c00100e000052
:020000040000fa
:04009000100e00004e
:020000040000fa
:04009400100e00004a
:020000040000fa
:04009800100e000046
:020000040000fa
:04009c00da0800007e
:020000040000fa
:0400a0007e020000dc
:020000040000fa
:0400a400100e00003a
:020000040000fa
:0400a800100e000036
:020000040000fa
:0400ac00100e000032
:020000040000fa
:0400b000100e00002e
:020000040000fa
:0400b400100e00002a
:020000040000fa
:0400b800100e000026
:020000040000fa
:0400bc00100e000022
:020000040000fa
:0400c000100e00001e
:020000040000fa
:0400c400100e00001a
:020000040000fa
:0400c800100e000016
:020000040000fa
:0400cc00100e000012
:020000040000fa
:0400d000100e00000e
:020000040000fa
:0400d400100e00000a
:020000040000fa
:0400d800100e000006
:020000040000fa
:0400dc00100e000002
:020000040000fa
:0400e000100e0000fe
:020000040000fa
:0400e400100e0000fa
:020000040000fa
:0400e800100e0000f6
:020000040000fa
:0400ec00100e0000f2
:020000040000fa
:0400f000100e0000ee
:020000040000fa
:0400f400100e0000ea
:020000040000fa
:0400f800100e0000e6
:020000040000fa
:0400fc0006090000f1
:020000040000fa
:0401000032090000c0
:020000040000fa
:04010400100e0000d9
:020000040000fa
:04010800100e0000d5
:020000040000fa
:04010c00100e0000d1
:020000040000fa
:04011000100e0000cd
:020000040000fa
:04011400100e0000c9
:020000040000fa
:04011800100e0000c5
:020000040000fa
:04011c00100e0000c1
:020000040000fa
:04012000100e0000bd
:020000040000fa
:04012400100e0000b9
:020000040000fa
:04012800100e0000b5
:020000040000fa
:04012c00100e0000b1
:020000040000fa
:04013000100e0000ad
:020000040000fa
:04013400100e0000a9
:020000040000fa
:04013800100e0000a5
:020000040000fa
:04013c00100e0000a1
:020000040000fa
:04014000100e00009d
:020000040000fa
:04014400100e000099
:020000040000fa
:04014800100e000095
:020000040000fa
:04014c00100e000091
:020000040000fa
:04015000100e00008d
:020000040000fa
:04015400100e000089
:020000040000fa
:04015800100e000085
:020000040000fa
:04015c00100e000081
:020000040000fa
:04016000100e00007d
:020000040000fa
:04016400100e000079
:020000040000fa
:04016800100e000075
:020000040000fa
:04016c00100e000071
:020000040000fa
:040170006803000020
:020000040000fa
:04017400100e000069
:020000040000fa
:04017800100e000065
:020000040000fa
:04017c00100e000061
:020000040000fa
:04018000100e00005d
:020000040000fa
:04018400100e000059
:020000040000fa
:04018800f40200007d
:020000040000fa
:04018c00100e000051
:020000040000fa
:04019000100e00004d
:020000040000fa
:04019400100e000049
:020000040000fa
:04019800100e000045
:020000040000fa
:04019c00100e000041
:020000040000fa
:0401a000100e00003d
:020000040000fa
:0401a400100e000039
:020000040000fa
:0401a800100e000035
:020000040000fa
:0401ac00100e000031
:020000040000fa
:0401b000100e00002d
:020000040000fa
:0401b400100e000029
:020000040000fa
:0401b800100e000025
:020000040000fa
:0401bc00100e000021
:020000040000fa
:0401c000100e00001d
:020000040000fa
:0401c400100e000019
:020000040000fa
:0401c800100e000015
:020000040000fa
:0401cc00100e000011
:020000040000fa
:0401d000100e00000d
:020000040000fa
:0401d400100e000009
:020000040000fa
:0401d800100e000005
:020000040000fa
:0401dc00100e000001
:020000040000fa
:0401e000100e0000fd
:020000040000fa
:0401e400100e0000f9
:020000040000fa
:0401e800100e0000f5
:020000040000fa
:0401ec00100e0000f1
:020000040000fa
:0401f000100e0000ed
:020000040000fa
:0401f400100e0000e9
:020000040000fa
:0401f800100e0000e5
:020000040000fa
:0401fc00100e0000e1
:020000040000fa
:100200002f9922000e7f24000e01880000000000bc
:10021000000020000000e000020032000001200089
:100220002002880014000700a10607000000e0007b
:1002300003003a00606a200021002000020037001d
:100240000000200001002000810f7000010032003a
:1002500014000700000020000000e000020032004f
:100260000000020000000000dc0a020000000000a4
:100270000040da000000fe004440a900e0522000e7
:100280000000e00003003200002020009001880000
:100290004440a800000006008a1f78008b1f7800e9
:1002a00000000600a1028800800478000000eb0036
:1002b0001f003700e284440054a0b4009905ba003e
:1002c000e284440054a0b4009906ba00e2844400d9
:1002d00054a0b4000006eb00476fde00fd07b2003b
:1002e000ae018800636ce10003003a00eaff0700fa
:1002f0000000eb000e003700606ce10008003a00df
:10030000004deb000a05e800020039003420ec0043
:100310000af0a0008b05e900f9ff3e000400370059
:100320006168e100010032000086eb000b0007006d
:1003300019c7ba001905ba000e04e00003003a001c
:100340000a00e000dbff3a0000000600fe07b200f2
:10035000ae0288008a047800f5ff37000cd0a300b5
:10036000e20f4d001c00390089027800354dba00bb
:100370000a05e800020039003420ec000af0a00071
:100380008b05e9000f003200254dba000a05e80090
:10039000020039003420ec000af0a0008b05e900cf
:1003a000080032000c00e0000600320015cdba0053
:1003b0000a05e800020039003420ec000af0a00031
:1003c0008b05e9008984e80054a0b4000b00e0002c
:1003d000e2ff3a00000006009902ba00055d7800cd
:1003e0008b05e900f7ff3200c82ade00055d7800c2
:1003f0008b05e900f3ff32000c00e000f1ff320052
:1004000019ddba00eeff3700782404000000000078
:1004100000000400000000003600f800809fbe00cd
:10042000829fbe00849fbe00869fbe003200f800ff
:100430003400f80010002000a001880000202000f7
:10044000900188000200fa0010c0b30086a20200ea
:1004500000000000f01c8000004f78008004800045
:10046000620060000000e00004003a00d01c800040
:100470006e0060000000e000080032008960a90002
:100480009020a900d11c800000ff2f000080600098
:10049000d01c88009960a8000f003700410480003c
:1004a00000802000008060000000e0000a003200b0
:1004b000c104800000802000008060000000e00097
:1004c000050032008960a90011c0b3001e40780009
:1004d000d4740200000000000080fa003400f9002b
:1004e0003200f9004f03be004f02be004f01be00b4
:1004f0004f00be003600f900004006003600f8004c
:10050000809fbe00829fbe00849fbe00869fbe006b
:100510003200f8003400f80010002000a00188002c
:1005200000202000900188000200fa0010c0b300f3
:1005300086a2020000000000a01d8000004f78008d
:1005400080048000640060000000e00004003a00c5
:10055000801d80006e0060000000e0000800320096
:100560008bc0a9009040a900811d800000ff2f00d2
:1005700000806000801d88009bc0a800110037002b
:100580005104800000002400008060000000e000b2
:100590000c003200d10480000000240000806000c4
:1005a0000000e000070032008bc0a900a01d800001
:1005b000004f780021c0b3001e407800d4740200c0
:1005c000000000000080fa003400f9003200f90059
:1005d0004f03be004f02be004f01be004f00be00e1
:1005e0003600f900004006003600f800809fbe008b
:1005f000829fbe00849fbe00869fbe003200f8002e
:100600003400f80010002000a00188000020200025
:10061000900188000200fa0010c0b30086a2020018
:1006200000000000b01e8000004f780091048000a0
:1006300000082000008060000000e00004003a0094
:10064000901e80006e0060000000e0000800320094
:100650009300a90092e0a900911e800000ff2f00e6
:1006600000806000901e8800a300a8000f003700e3
:100670009104800000102000008060000000e00075
:100680000a00320011058000001020000080600088
:100690000000e000050032009300a90031c0b30063
:1006a0001e407800d4740200000000000080fa00b0
:1006b0003400f9003200f9004f03be004f02be00c3
:1006c0004f01be004f00be003600f900004006009a
:1006d0003600f800809fbe00829fbe00849fbe004f
:1006e000869fbe003200f8003400f80010002000a1
:1006f000a001880000202000900188000200fa007c
:1007000010c0b30086a2020000000000501e80004e
:10071000004f780090048000620060000000e0005c
:1007200004003a00301e80006e0060000000e0000f
:10073000080032009240a9009220a900311e8000da
:1007400000ff2f0000806000301e8800a240a8003b
:100750000d00370090048000640060000000e0009d
:100760000900320010058000640060000000e00015
:10077000050032009240a90041c0b3001e4078003d
:10078000d4740200000000000080fa003400f90078
:100790003200f9004f03be004f02be004f01be0001
:1007a0004f00be003600f900004006000000fa00cd
:1007b000110007000103200010002000e6000700e0
:1007c0002a0007005103200020002000e20007005b
:1007d000420007005103200030002000de00070027
:1007e0005b0007005103200040002000da000700f2
:1007f0000080fa00000006000200fa009b66a800d4
:10080000a13d800000fc2f0000806000c000b3000c
:10081000a03d88009a06a900f13e8000f00f2c0050
:10082000808060000030200001007000f03e8800f1
:10083000f05f2000001d880061058000f0ff2800a7
:100840000080600000c0a0006005880099e3a80057
:100850009b43a800f01c8000004f78008960a9002d
:100860009960a8000080fa00000006000200fa006b
:100870009a46a800b13d800000fc2f000080600077
:100880007001b300b03d88009a66a900513f800016
:1008900000fc2f00008060005000b300503f880033
:1008a000f0022000b01d8800b1058000f08f2f00fd
:1008b000008060000080a000b0058800afe3a800c1
:1008c000b143a800a01d8000004f78008bc0a90094
:1008d0009bc0a8000080fa00000006000200fa0099
:1008e000d6e6a800313e800000fc2f0000806000aa
:1008f000a001b300303e8800d706a900313f800038
:10090000f00f2c008080600000502100010070007a
:10091000303f8800f0022000c01e8800a106800041
:1009200080ff2f00008060000000a000a00688006b
:10093000d1e3a800d343a800b01e8000004f780088
:100940009300a900a300a8000080fa0000000600a0
:100950000200fa007206a800913d8000f00f2c0002
:1009600000806000903d88007226a900a13e8000b2
:10097000f00f2c008080600000302100010070002a
:10098000a03e8800f0022000601e880081068000e2
:10099000f08f2f00008060000080a000800688009b
:1009a000c5e3a800c743a800501e8000004f780090
:1009b0009240a900a240a8000080fa0000000600b2
:1009c0000000fa0099e3a8009b43a8008960a900f1
:1009d0009960a800afe3a800b143a8008bc0a900ac
:1009e0009bc0a800d1e3a800d343a8009300a900ae
:1009f000a300a800c5e3a800c743a8009240a9002f
:100a0000a240a8000080fa00000006000000fa00e2
:100a100099e3a9009960a900afe3a9009bc0a900d0
:100a2000d1e3a900a300a900c5e3a900a240a90041
:100a30000080fa00000006000200fa00000f7800b3
:100a400010c0b3000080fa00000006000200fa00a7
:100a5000004f78001e4078000080fa000000060079
:100a60000200fa00004f78001e4078007e0102006c
:100a7000020000000080fa00000006000200fa00f8
:100a8000004f78001e407800ba010200020000000a
:100a90000080fa00000006000200fa00004f780013
:100aa0001147980010c0b30086a2020000000000a9
:100ab0001e407800e5ff0700004f78001e409000c0
:100ac0000080fb00e20f50000a003200e20f5000ed
:100ad00003003c00e10f50000a003200150037000f
:100ae000e30f50000b003200e40f50000d00320005
:100af000100037001e407800ba010200020000001a
:100b00000c0037001e4078007e0102000200000049
:100b1000080037001e407800320202000200000088
:100b2000040037001e407800f601020002000000b9
:100b3000000000000040eb0086a202000000000060
:100b40000080fa00000006000200fa00004f780062
:100b50000080fa00000006000400fa00000f780090
:100b6000110798001e00900031032000810f5000f3
:100b70005900320031032000810f50000a003c0070
:100b800011032000810f50002900320011032000c2
:100b9000810f50003b003c0001032000810f5000fa
:100ba0000e003200b500370051032000810f5000c5
:100bb0007300320051032000810f50005b003500ac
:100bc00061032000810f5000820032008103200069
:100bd000810f500094003200a80037001e007800fa
:100be000e10f500002003a00f05f2000001d880075
:100bf0001e007800e20f500002003a00f05f200073
:100c0000b01d88001e007800e30f500002003a007b
:100c1000f05f2000c01e88001e007800e40f500026
:100c200098003a00f05f2000601e8800a4003700a2
:100c30001e007800e10f500002003a00f02f200063
:100c4000001d88001e007800e20f500002003a00ec
:100c5000f02f2000b01d88001e007800e30f500028
:100c600002003a00f02f2000c01e88001e0078000d
:100c7000e40f500085003a00f02f2000601e88002d
:100c80008f0037001e007800e10f500002003a008c
:100c9000f0172000001d88001e007800e20f5000b1
:100ca00002003a00f0172000b01d88001e007800f6
:100cb000e30f500002003a00f0172000c01e880029
:100cc0001e007800e40f500072003a00f017200078
:100cd000601e88007a0037001e007800e10f500087
:100ce00002003a00f00b2000001d88001e00780072
:100cf000e20f500002003a00f00b2000b01d880007
:100d00001e007800e30f500002003a00f00b2000b4
:100d1000c01e88001e007800e40f50005f003a00fb
:100d2000f00b2000601e8800650037001e00780070
:100d3000e10f500002003a00f0052000001d88007d
:100d40001e007800e20f500002003a00f00520007b
:100d5000b01d88001e007800e30f500002003a002a
:100d6000f0052000c01e88001e007800e40f50002f
:100d70004c003a00f0052000601e8800500037004b
:100d80001e007800e10f500002003a00f00220003f
:100d9000001d88001e007800e20f500002003a009b
:100da000f0022000b01d88001e007800e30f500004
:100db00002003a00f0022000c01e88001e007800e9
:100dc000e40f500039003a00f0022000601e880055
:100dd0003b0037001e007800e10f500002003a008f
:100de00070012000001d88001e007800e20f5000f6
:100df00002003a0070012000b01d88001e0078003b
:100e0000e30f500002003a0070012000c01e88006d
:100e10001e007800e40f500026003a007001200008
:100e2000601e8800260037001e007800e10f500089
:100e300002003a0030002000001d88001e007800eb
:100e4000e20f500002003a0030002000b01d880080
:100e50001e007800e30f500002003a00300020002e
:100e6000c01e88001e007800e40f500013003a00f6
:100e700030002000601e8800110037000000eb00e9
:100e800010003700000000000d00370000000000d7
:100e90000b003700000000000900370000000000d0
:100ea00007003700000000000500370000000000c8
:100eb00003003700000000000100370000000000c0
:100ec000100020000080fa00000006000000fa0078
:100ed0000080fa00000006000000fa000080fa001e
:100ee000000006000800fa0010079800414798002b
:100ef000320798000000eb00000f78000000eb00c4
:100f0000000f78002a0037003e009000e20f5000ea
:100f100011003200e20f500003003c00e10f5000ce
:100f20000600320021003700e30f500011003200ac
:100f3000e40f5000160032001c0037001e0078003d
:100f40009e00900000804000104078007e0102006a
:100f500002000000150037001e0078009e0090007f
:100f60000080400010407800ba010200020000003a
:100f70000e0037001e0078009e00900000804000a8
:100f80001040780032020200020000000700370023
:100f90001e0078009e009000008040001040780005
:100fa000f601020002000000000000001e0fe80031
:100fb0004e4090000080fb009e0f5000d2ff3c008e
:100fc0000080fa00000006000000fa0072c8bf00ae
:100fd000e14f50000e003a007268ef00d0992000f7
:100fe000104078008040e800d09920000148780047
:100ff000d09920001040780013c0b3000041780061
:1010000050002000010020005c8902000000000068
:101010000080fa00000006003600f800809fbe0045
:10102000829fbe00849fbe00869fbe003200f800f3
:101030003400f80010002000a001880000202000eb
:10104000900188000000fa005004800068006000f1
:101050000000e00038003200e1358000000420008c
:10106000008060000000e0000b003200e0358000ee
:101070000060a100e0358800813580000004200078
:10108000008060000000e00003003a00d04b8000c8
:101090000040a000d04b8800e1358000000820000f
:1010a000008060000000e0000f003200e0358000aa
:1010b0000070a100e0358800813580000008200024
:1010c000008060000000e00007003a00104c800043
:1010d0000020a000104c8800b133800000042000e4
:1010e00000806800b0338800a03480006200600097
:1010f0000000e0000e003200a03480000010a100cb
:10110000a034880040348000620060000000e000ed
:1011100007003a00104c80000030a000104c8800fe
:10112000b13380000004200000806800b0338800e4
:1011300000f00200010000008a60a9000080fa00af
:101140003400f9003200f9004f03be004f02be0028
:101150004f01be004f00be003600f90000400600ff
:10116000801f78003200f8003400f80010002000e2
:10117000a001880000202000900188000000fa00f3
:1011800050048000700060000000e00004003200a5
:101190008a80a900004c80000070a000004c8800ec
:1011a0000080fa003400f9003200f9004f007800a6
:1011b00000400600809fbe003200f8003400f800b6
:1011c00010002000a001880000202000900188006d
:1011d0000000fa005104800000002200008060003e
:1011e0000000e000040032008ba0a900004c800049
:1011f0000060a000004c88000080fa003400f90074
:101200003200f9004f00be0000400600809fbe0083
:101210003200f8003400f80010002000a00188001f
:1012200000202000900188000000fa007104800076
:1012300000022000008060000000e0000400320096
:101240008ea0a900004c800000a0a000004c8800e7
:101250000080fa003400f9003200f9004f00be00af
:10126000004006003600f800809fbe00829fbe004e
:10127000849fbe00869fbe003200f8003400f80054
:1012800010002000a00188000020200090018800ac
:101290000200fa00f10480000004200000806000d9
:1012a0000000e000250032008ec0a900403480001c
:1012b000640060000000e00020003a000040eb0005
:1012c000004f78000040eb00104798000040eb0012
:1012d000104798000b003700403480006400600025
:1012e0000000e00004003a0050002000ec0c020076
:1012f000020000001e4fe8001e4090000040e80081
:10130000104798001e409000f34f5000f2ff360047
:101310001e407800e34f5000080036000040eb000c
:10132000004f7800e04b800000a0a000e04b880058
:10133000d04b80000050a000d04b88000080fa0005
:101340003400f9003200f9004f03be004f02be0026
:101350004f01be004f00be003600f90000400600fd
:101360003600f800809fbe00829fbe00849fbe00b2
:10137000869fbe003200f8003400f8001000200004
:10138000a001880000202000900188000000fa00e1
:101390005eff0200010000000080fa003400f90046
:1013a0003200f9004f03be004f02be004f01be00e5
:1013b0004f00be003600f900004006003600f8007d
:1013c000809fbe00829fbe00849fbe00869fbe009d
:1013d0003200f8003400f80010002000a00188005e
:1013e00000202000900188000000fa0041048000e5
:1013f00000082000008060000000e000570032007c
:10140000c104800000082000008060000000e000af
:101410005200320088e0a90037c8bf000040e80051
:1014200037e8b70006c8bf000040e80006e8b7008c
:10143000103a81000010a000103a8900b0338000fb
:101440000060a100b0338800a0002000ec0c020076
:1014500002000000b03380000060a000b0338800bc
:1014600037c8bf000080fb006100600000407800ca
:101470000004e00003003200104c80000000a000d7
:10148000104c8800603b81000000e800603b890050
:10149000613b8100703b8100808f50000600360068
:1014a0000000eb00603b8900c0dc80000000a00071
:1014b000c0dc8800210037004034800064006000f8
:1014c0000000e000100032000668ef00d14b800001
:1014d00000022000008060000000e00003003200f5
:1014e000d04b80000050a100d04b880038c8bf000e
:1014f000e14f500011003a00104c80000000a000a5
:10150000104c88000d0037000668ef0001338000a2
:1015100000002400008060000000e00004003a00a9
:10152000d04b80000030a000d04b88000300370073
:10153000d04b80000030a100d04b8800e14b8000f0
:1015400000402000008060000000e00003003a003e
:10155000f04b80000060a000f04b88000080fa0093
:101560003400f9003200f9004f03be004f02be0004
:101570004f01be004f00be003600f90000400600db
:101580000000fa00a089200000428800c08b2000e3
:1015900010428800e091200020428800e04b80004b
:1015a00000a0a100e04b880040922600b0408800d7
:1015b0000080fa00000006000000fa0083e0a900a5
:1015c0003c01020002000000edff0700aeb7020080
:1015d00000000000802520000e0d02000200000027
:1015e0000ca1a800c4f80200010000007ef802006f
:1015f00001000000f87f020000000000c435020076
:1016000001000000a43e020001000000560102009b
:1016100002000000001920000e0d02000200000070
:1016200066250200010000003cbc02000100000031
:101630002efc02000100000042a102000000000098
:101640000133800000002400008060000000e00002
:1016500007003a0010c0b300daa202000000000048
:10166000d04b80000030a000d04b8800060037002f
:10167000d04b80000030a100d04b88000040eb0030
:10168000daa2020000000000d04b80000070a10030
:10169000d04b8800c0368000640060000000e0008d
:1016a00013003a0007c8bf000004e00010003a0031
:1016b000a00020000e0d020002000000c0368000d5
:1016c000640060000000e00009003a0007c8bf00a5
:1016d0000004e00006003a00d04b80000070a0003b
:1016e000d04b880010c0b300d2a702000000000059
:1016f000c0368000640060000000e00003003a0093
:10170000d04b80000070a000d04b8800eccc0200d1
:1017100000000000608e2200ee5402000100000074
:10172000601381000000e00012003200701381009d
:1017300081138100e00f5000e08f58000d0032004f
:101740007026220031cfb300014878007047810035
:101750008147810020168900311689007047810079
:10176000814781000001be00608e220026590200e0
:1017700001000000601381000000e0002200320040
:101780007013810081138100e00f5000e08f58003a
:101790001d00320060b32000104078000004e0001b
:1017a000190032007026220071cfb3000148780082
:1017b0007047810081478100201689003116890019
:1017c00070478100814781000001be00608e2200c9
:1017d0002659020001000000f25a02000100000038
:1017e0000060fe007026220011cfb300014878008f
:1017f00070478100814781000001be00608e220099
:10180000265902000100000084e0020000000000f0
:10181000608e22008a73020001000000608e2200a8
:101820003c76020001000000ba390200000000000e
:10183000ae0202000100000032a8800043a8800030
:1018400040b7850051b78500020278000301780097
:10185000800178000100780003026200000061004e
:101860008000eb00c000dd00000020000001be0091
:101870006120b8000001710081817100e00f51000a
:10188000e08f5900050032007047810081478100d8
:1018900042c1b300420202000100000083e0a80040
:1018a0000060fe00a056220010407800e14f50007a
:1018b00004003a0010c0b30066b802000000000047
:1018c000030037000040eb0066b802000000000093
:1018d000609b2000104078000004e000020032000d
:1018e00083e0a900ffff3700609b200010407800d4
:1018f0008040e800609b20000148780066250200d7
:1019000001000000609b200010407800e14f500073
:101910000200320083e0a900ffff3700609b200037
:10192000104078008040e800609b2000014878006b
:10193000969b020001000000609b20001040780090
:10194000e24f50000200320083e0a900ffff3700a1
:10195000609b2000104078008040e800609b2000e1
:10196000014878005ac4020000000000609b20007b
:1019700010407800e34f50000200320083e0a900dd
:10198000ffff3700609b2000104078008040e80097
:10199000609b2000014878006ad702000100000027
:1019a000609b200010407800e44f5000020032009d
:1019b00083e0a900ffff3700609b20001040780003
:1019c0008040e800609b200001487800c8f10200d8
:1019d0000100000046c9020001000000609b2000d9
:1019e00010407800e54f50000200320083e0a9006b
:1019f000ffff3700609b2000104078008040e80027
:101a0000609b200001487800e2f90200010000001c
:101a1000609b200010407800e64f5000020032002a
:101a200083e0a900ffff3700609b20001040780092
:101a30008040e800609b20000148780066cd0200ed
:101a400000000000609b200010407800e74f50002d
:101a50000200320083e0a900ffff3700609b2000f6
:101a6000104078008040e800609b2000014878002a
:101a7000967f020001000000609b2000104078006b
:101a8000e84f50000200320083e0a900ffff37005a
:101a9000609b2000104078008040e800609b2000a0
:101aa000014878002e15020001000000609b200014
:101ab00010407800e94f50000200320083e0a90096
:101ac000ffff3700609b2000104078008040e80056
:101ad000609b2000014878001a54020001000000b9
:101ae000609b200010407800ea4f50000200320056
:101af00083e0a900ffff3700609b200010407800c2
:101b00008040e800609b200001487800149d02009e
:101b100001000000609b200010407800eb4f500057
:101b20000200320083e0a900ffff3700609b200025
:101b3000104078008040e800609b20000148780059
:101b40009aa8020001000000609b2000104078006d
:101b5000ec4f50000200320083e0a900ffff370085
:101b6000609b2000104078008040e800609b2000cf
:101b700001487800609b200010407800ed4f500035
:101b80000200320083e0a900ffff3700609b2000c5
:101b9000104078008040e800609b200001487800f9
:101ba000a2a8020001000000609b20001040780005
:101bb000ee4f50000200320083e0a900ffff370023
:101bc000609b2000104078008040e800609b20006f
:101bd0000148780000a6020001000000609b200080
:101be00010407800ef4f50000200320083e0a9005f
:101bf000ffff3700609b2000104078008040e80025
:101c0000609b2000014878005efe02000100000099
:101c1000609b20008040eb000148780020ff3700e7
:101c20000040da000000fe00889fbe0080047800bb
:101c3000804c81000000e00004003a000f00070023
:101c40000084eb000000e00008003500884c8100b3
:101c50000900e00005003200090044000700070009
:101c60000000e00001003d000084eb000800780067
:101c70004f04be0000000600000005008000780050
:101c80000100e00003003a0000002000804c8900c1
:101c9000000005000080eb0002002000828f500051
:101ca00002003e00814c89000000eb0000000600ad
:101cb0000000050032002000db0037002800fa0099
:101cc000889fbe008a9fbe008c9fbe0007067800da
:101cd000878669000c003b000304780087047800c5
:101ce00008f0a10009f0a100840f5000858f580072
:101cf000860f5900890f5c00030033000cf0a2002e
:101d000001003a000cf0a1000c0207006400e100a1
:101d10005f003200780147006408e1006100320092
:101d20006c014700748557003200be001201be00ee
:101d30003a04be001a05be001e039000be0a9000c1
:101d40008503530006003d000004fd008104fd00f2
:101d50000205fd008305fd008703ea000503780006
:101d60000df8a3000400320060041400e0841c009d
:101d700060051d00e0851d006022b8007d03200085
:101d80000d38e1008006eb000b0039004433dd0024
:101d9000f300b200830173003900370084827200bf
:101da0000d027800e10664008b85d1000a85d3001e
:101db0008984d3000884d3008703e900f7ff3b0040
:101dc00008004000898048000a0149008b814900d1
:101dd00004003b0060001000e08018006001190062
:101de000e08119000358a300090032008d827200bf
:101df00084827200610260008301d1000281d300fd
:101e00008180d3000080d3000603e8001b00370068
:101e10000348a30017003a000600e0001700340052
:101e20000603e9000d00a30000004800818048007f
:101e300002014900838149000348a3000f003a00d2
:101e40000600e000090034000603e900000040003d
:101e500081804800020149008381490001003a0065
:101e60000003eb000348a300f5ff32006022b80036
:101e700002003700848272006182660083010700dd
:101e800003f0a1000cf0a70003f0a000bf01370091
:101e9000640147006408e10002003a000df8a30065
:101ea000b7013a003200be001201be00b701370090
:101eb00003f0a200889fbe008a9fbe008c1f78009e
:101ec000880307008f0333006450e1004f003200a5
:101ed0006420e1005200320003826c0007003b00e6
:101ee0000905d0000306d000820f54000c065d00e7
:101ef00002003900020032008901780003067800f0
:101f00008582550004003d000003fd008103fd00b3
:101f10008502ea008b854200840f720002003b00bc
:101f200060001000e08018006011b8000005eb00b0
:101f30007a28e1000a00390006007800c75ddd005c
:101f4000f707b200878075002d003700828171008d
:101f50000a017800610560008180d1000080d30013
:101f60008502e900f9ff3b00060440008784480031
:101f700002003b0060041400e0841c000988a300f8
:101f8000070032008a817100828171006101640062
:101f90008904d1000884d3008b05e80017003700be
:101fa0000978a30013003a000b00e000130034008e
:101fb0008b05e9000804440089844c000a4474003d
:101fc0000978a3000d003a000b00e0000700340080
:101fd0008b05e9000804440089844c0001003a00a4
:101fe0000b0020000978a300f7ff32000001eb008e
:101ff00002003700828171000a017800fe020700aa
:102000000cf0a70001f0a000470337006420e100b6
:1020100002003a00838f6c00470333000801be00c2
:102020000200be0040033700889fbe008a9fbe00aa
:102030008c9fbe000206780001f0a7000cf0a00003
:102040000004be00120307000800be006420e10087
:102050000700390002003a00f1ff2700f0ff2f00cf
:102060000160a00012022000624488005100370085
:1020700009f0a1000800be000200200003f82300c0
:1020800068010700f4ff3c000800be0002002000c9
:1020900003982300610107000800be0030003500ee
:1020a0000200200003f023005e01070005003c0051
:1020b0000800be000801be00970307000005be002f
:1020c0000e0037000c10a2000000200001f82300d1
:1020d0000801be0076ff07000200200003f0230085
:1020e0008d0307000005be000d050700020020005b
:1020f00003002c00880307000004be000a00be0095
:10210000b2d02800130b2c006aff07000a01be00a2
:1021100081030700020f2500330b240065ff070031
:10212000809fbe000a00be005206220013f02b0062
:1021300079030700b2662100f3f623005dff070074
:102140000a01be00740307004f01be007e000700b5
:102150000801be00700307000801be0055ff07001c
:102160000c00a70007003700b2fd200093fc2300fd
:102170000c10a7004fff07000cf0a70001f0a20011
:102180000c0037000cf0a7000200370001f0a2009d
:1021900004003700b2fd2000930424000c10a600b8
:1021a00003003700b2fd200093fc23000c10a700b1
:1021b00040ff07004f06be004f05be004f04be00a3
:1021c000000006000081eb006a0437008f1fd10079
:1021d0007e0607008f87e9000000e000000006008f
:1021e0002800fa00889fbe008a9fbe008c9fbe0018
:1021f00003866b00d10007006400e1004400320058
:102200006408e1004a0032006100e100460032004b
:102210006108e10049003200ec0647006000b800a8
:102220003d02be003d03be00f48657006011b800b9
:102230003d04be003d05be007d0320000b003700bd
:102240000000a0008d06e9001300320004024200e5
:1022500085824a0006034b0087834b000000400044
:102260008180480002014900838149000802520030
:1022700089825a000a035b008b835b00f0ff3b00fe
:102280000802420089824a000a034b008b834b00fc
:102290008d06e900edff3a008482720086827200aa
:1022a000f707b2008782720001003200150020009b
:1022b0001e0490003e0b900006035400e63fb00061
:1022c0000368a300070032000000a7000500a0007b
:1022d0008301d1000281d3008180d3000080d3002c
:1022e0000603e8008301d1000281d3008180d3007e
:1022f0000080d3000002eb000482d20063000700dc
:1023000003f0a1000cf0a70003f0a0009f0037002d
:10231000640247006408e100990032003400be0006
:102320003401be00f6ff37006108e100940032007e
:102330006011b8006000b800f1ff370003ff27000c
:1023400002002000fbff3700889fbe008a9fbe006e
:102350008c1f7800630207006a02330003866c005a
:102360006450e1002e0032006420e10033003200ae
:102370006150e1002f0032006120e10031003200a5
:1023800085855500eb07b0000900200008042000f7
:10239000050037000804440089844c000a0031001d
:1023a0000603430087834b000001530081815b00db
:1023b000f8ff33000203be000800a0000804440038
:1023c00089844c00f6ff3900c639dd0083017300b3
:1023d00001003200130020008904d1000884d300da
:1023e0000998a300050032000800a7000300a00020
:1023f0008904d1000884d3008b05e8008904d1004a
:102400000884d3000001eb000281d200fa0107002a
:1024100001f0a1000cf0a70001f0a000420237007b
:102420006420e100440232000801be000200be0048
:10243000f7ff37006120e1003f0232006000b80082
:10244000f3ff37000000200001f82700f0ff3700fd
:10245000839f68000100e00002003d006000100062
:10246000e08018000300e00002003d006001110060
:10247000e08119008a0407004f00e00002003b00e1
:1024800060001000e0801800000006001800200026
:1024900057002000080453000d003d0006002000f6
:1024a00097fc2f000740e1001e0034008482720078
:1024b000610260008301d1000281d3008180d300da
:1024c0000080d3000804e800f8ff3a00470020002d
:1024d0006104600005047400040464000d0032000f
:1024e00061004000e080480060014900e08149004f
:1024f00003b8a500070032000603e8006538e100d4
:1025000004003a008301d1000281d3008180d3000e
:102510000080d300f87f20000830e1000300350080
:10252000080378006000b8006011b8004433dd0093
:10253000f300b20083017300000006006804470046
:102540000294be000094be00fc0447008694be00c6
:102550008494be0009007800e505070008007800b3
:10256000e305070099007800814f70000b003b00e5
:102570000800be00be0507004f00b1000300370091
:10258000f3ff2700f2ff2f006110b9004f06be00d5
:102590004f05be004f04be000080fa000000060098
:1025a00081037800ba0107000001be006000b80096
:1025b0000478a30013003a006220e10015003e00f9
:1025c0000d0039008301d1000281d3008180d30046
:1025d0008301d1000281d3008180d3008301d10027
:1025e0000281d3008180d3000538b000c42add0009
:1025f000f300b2008381720007f0a70003f0a0008f
:1026000000000600f3ff2700f2ff2f006110b90061
:10261000fbff370003ff2700f7ff370014002000ff
:1026200063063700f4ff2f00610637001400fa003c
:10263000889fbe008a9fbe008c9fbe000004be0023
:102640000205be00680047000a90be000890be0068
:10265000a70507000070a7000bf0a1009e099000dd
:102660000e099000fe0090006e0090009e02900007
:1026700034432000848252000a00320010003c00e3
:10268000b4fc2f000428e1001f0034008301d100b6
:102690000281d3008180d3000080d3008502e8004e
:1026a000faff3a000b00e000b8ff3b0060001000aa
:1026b000e080180060011900e0811900b3ff3700c5
:1026c000b40020000428e10007003d0000004000a5
:1026d0008180480002014900838149008502e900a8
:1026e000faff3a00efff3700f3ff2700f2ff2f0059
:1026f0006110b9000b00e000a4ff3b0003002800bc
:1027000002002000010037006011b8006000b8002e
:102710009eff37000003be005d0107006011b80096
:102720000470a70007f0a1006509b1001b0032008a
:1027300012003500860220000628e100080035005e
:10274000f3ff2700f2ff2f006110b9000700e0003f
:1027500018003b00030028006000b80002000500dc
:102760000000400081804800020149008381490047
:102770008502e900faff3a0008003700f88f4200ae
:1027800002003c008000eb00000005008100d10049
:102790000080d3008502e800fcff3a000700e0005b
:1027a00004003b0060001000e08018006001190088
:1027b000e0811900000006000001be00340107009e
:1027c0000470a70003f0a1006509b10016003200f3
:1027d0000d0035006828e10006003500f0ff2f00ed
:1027e000f1ff27000300e00013003b000100280078
:1027f0000000050000004000818048008502e900db
:10280000fcff3a0008003700f88f420002003c004d
:102810008000eb00000005008100d1000080d300a3
:102820008502e800fcff3a000300e00002003b00e4
:1028300060001000e0801800000006001400fa009c
:10284000889fbe008a9fbe008c9fbe000004be0011
:102850000205be00680047000a90be000890be0056
:10286000230507000070a7000bf0a1000bf8a300e0
:1028700020003a009e0990000e099000fe00900092
:102880006e0090009e02900034432000848252002b
:102890003eff32000a003c00b4fc2f000428e10097
:1028a000140034008301d1000281d3008180d30061
:1028b0000080d3008502e800faff3a0033ff3700ba
:1028c000b40020000428e10007003c0000004000a4
:1028d0008180480002014900838149008502e900a6
:1028e000faff3a0029ff3700030028000200200009
:1028f000010037006011b8006000b80023ff370006
:102900000003be00e20007006011b8000470a700d9
:1029100007f0a10007f8a30017003a006509b1000d
:102920000d0032000d003500860220000628e1006f
:1029300003003500030028006000b8000200050015
:102940000000400081804800020149008381490065
:102950008502e900faff3a0000000600f88f420005
:10296000050034008100d1000080d3008502e8001a
:10297000fcff3a00000006006011b8008000eb0088
:10298000000005000001be00c10007000470a700a0
:1029900003f0a10003f8a30013003a006509b10099
:1029a00010003200090035006928e10002003500fe
:1029b0000100280000000500000040008180480060
:1029c0008502e900fcff3a0000000600f88f420093
:1029d000050035008100d1000080d3008502e800a9
:1029e000fcff3a00000006008000eb00000005003c
:1029f000881f7800030478000300e00007003d0012
:102a000060001000e080180060011900e0811900ea
:102a100002003b0001f02d00030037001a00070000
:102a200008f0a70003f0a0004f04780000000600a3
:102a3000881f7800030478000300e00007003d00d1
:102a400060001000e080180060011900e0811900aa
:102a500002003b0001f02d000300370035000700a5
:102a600008f0a70001f0a0004f0478000000060065
:102a70004f89de0082017800ddff37004f89de00dc
:102a800082017800eaff3700889fbe000082700054
:102a900004027100048271002400320036432000d9
:102aa000c50020008383cf000a0039000541b10032
:102ab0008283cf00070039000541b1008183cf0038
:102ac000040039000541b1008083cf0001003900c6
:102ad0000541b10085c353006022b80012003200e6
:102ae0000a003b0084827200610260008301d10011
:102af0000281d3008180d3000080d3000603e80068
:102b00008743e800f7ff3a00070037000000400065
:102b10008180480002014900838149000603e900e1
:102b20008743e900f9ff3a0058fe07004f04be0052
:102b300000000600889fbe008a9fbe0000827000d1
:102b40000402710004827100260032000004be00fd
:102b50000200be006011b8006b0920009502200041
:102b60000182cf000a0039000541b1000082cf0088
:102b7000070039000541b1000982cf000400390087
:102b80000541b1000882cf00010039000541b100c4
:102b900005425200120032000a003b00828171009f
:102ba000610164008100d1000080d3008984d300da
:102bb0000884d3008b05e8000442e800f7ff3a00e0
:102bc000070037000804440089844c0000004800d6
:102bd000818048008b05e9000442e900f9ff3a00d2
:102be000050007004f05be004f04be0000000600b0
:102bf0006011b800cfff37008100200061805500d0
:102c00000b003d000b00200061fe2f000100e100e1
:102c10001d00340082817100610164008904d100cb
:102c20000884d3000000e800faff3a007100200099
:102c300061006400030070000200600009003200bf
:102c400061044400e0844c000988a50005003200be
:102c50008b05e8006808e10002003a008904d10011
:102c60000884d300f20f20000258e10005003d0067
:102c7000c75ddd00f907b2008980750008007800a3
:102c8000000006000bf827008b007800000005000c
:102c9000c70ade00f107b200f50fb20008003200eb
:102ca000e1cf4200020032000170a00024000500c4
:102cb000810f700001003200040805004400050087
:102cc000810f700002003a00140005008502e9003f
:102cd0000000400081c04800fcff3b000170a000e4
:102ce000240005000004be00e9ff07000003be0049
:102cf0000405be000200be00e5ff0700844f75001a
:102d0000000006000200be006450e100050036002d
:102d10006420e100020036000968a30001003a00c7
:102d20000800be000160a0004f0678004f05be00fd
:102d30004f04be0000000600f0ff2f00f1ff270047
:102d4000f9ff37002800fa00889fbe008a9fbe0066
:102d50008c9fbe0003866b00f8fd07000028a300cf
:102d600064003a000128a30067003a000008a300ad
:102d700062003a000108a30065003a001e009000be
:102d8000be08900081064000ed3fb100f48057007e
:102d9000ee019000111ab8008e099000311bb800a6
:102da0009e099000311cb800511db800f4855700f1
:102db00046000700fe0190003a0007008b85e800fe
:102dc0003e0007008e09900040000700ee019000d1
:102dd000340007008b85e800380007008e0990005a
:102de000400007009e0990001b18b80089044000ad
:102df0000a854800fe019000340007008b85e8003a
:102e000038000700ee019000300007008e099000a6
:102e10001b18b800890440000a8548000a98a300de
:102e200008003a000402420085824a0006034b0073
:102e300087834b0008044c0089844c000a054d0030
:102e40008d06e90084827200850273004c3add0031
:102e5000850272000100320015002000443ade00b5
:102e60001400b2004538de00cb45dd000b007000d9
:102e7000c540de00cb4ddd008b8070004549de0093
:102e8000cb55dd000b017100c551de000d0378004c
:102e90007efd070003f0a1000cf0a70003f0a000e6
:102ea000bafd37001b18b8008502400006834800b1
:102eb000e0834b0060044c00070037001b18b8008b
:102ec0000603400087834800faff37001b18b8004c
:102ed0008703400008844800e0844c0060054d00f2
:102ee000000006001b18b800080440008984480050
:102ef000faff37000108a300a1fd3a005800be0008
:102f00005801be00e3ff37000008a3009cfd3a0013
:102f100009047800f9ff3700889fbe008a9fbe0031
:102f20008c1f78006fff070076ff330003866c006c
:102f30006450e100240032006420e10027003200e8
:102f40006150e100220032006120e10021003200e6
:102f50008b854200eb07b1000134b800003ab8009d
:102f60000804420089844a00013ab8000030b800e1
:102f70008880400009014a0004003300000040003e
:102f800081804800020149008b05e900c909dd0084
:102f9000830170000100320013002000c814de001d
:102fa0004814dd004709de001200b200c808de0048
:102fb0000884700010ff070001f0a1000cf0a700ca
:102fc00001f0a00058ff37006120e1005aff3200f5
:102fd0000801be000200be00f7ff37006150e100ab
:102fe000fcff3a0054ff37000c00fa00889fbe0037
:102ff0008a9fbe008c9fbe003aff07000206be00fb
:10300000840578000200be0002002000c103070012
:1030100005003a008b02b30012002000bd03070038
:1030200001003a00f8856d000c01be00c6000700e3
:103030000800be009b0032000b08a3009e003a006f
:103040000df0a7000be0a00009f0a7000bf0a00016
:1030500009f0a1000801be00bb0007000bf0a600ac
:103060009500320001003c000bd0a0008acf750013
:10307000b20033006000b8006250e10099003900ee
:10308000a1003e000b28a300a2003a000bf8a30009
:10309000060032000b58a300a70032000801be0052
:1030a000a90007000800be00940032000800be001e
:1030b000b90207000004be00050578000bf0a70068
:1030c0000b30a6000bf0a1005b079800324f2000e8
:1030d00053f3230051fd070005003d000800be002a
:1030e000120020001e0407000004be000a05e900cb
:1030f0004a0798006150b90060fe0700008fbe00cb
:103100000c01be0084ff0700abfd070030079800ec
:103110000100e00002003d0060001000e0801800a7
:10312000f2ff2700820f5000e08f580064003e003d
:103130000c00be00a0fd070020079800f207200049
:10314000820f5000e08f580005003c0012f82f005d
:10315000f3ff2f00820f5000838f580009003d00bd
:103160000a00e0000300320001003c000201ea0016
:10317000020578006000b800200798003a07980020
:10318000190037003e0090006100b9003bfe0700c7
:10319000809fbe000c00be004109dd004811de002a
:1031a0007208b1005b0307000005be001e01be00ef
:1031b00059ff07004f01be003dfb0700809fbe0086
:1031c0000c00be000a01be0039fb07001e01be0054
:1031d00051ff07004f01be0036fb07008221270088
:1031e00013f323004cff07000005be002e009000e3
:1031f0006100b90021fe070001f0a2000c01be0031
:103200002cfb07000006be000800be00f603070006
:103210000c01be0040ff07000a01be0025fb0700ad
:10322000809fbe004a0007002e0590000af0a7000c
:103230000a05ea00050037000800be000801be00cc
:1032400035ff07000004be000c00be000801be00f0
:103250000a00a70030ff07000006be000a05d100e3
:10326000f5ff3a005e01900002e0a600030037007f
:103270000001be003600070033fc07000004be005a
:103280004f00be00c10207000801be0022ff070078
:103290003e019000b2030700de0590000bf0a7008e
:1032a00001f0a2004f06be004f05be004f04be0055
:1032b0000080fa000000060025000700f9ff370033
:1032c000270007006000b8000bd0a7000bc0a000cb
:1032d0000be0a7000bc0a2000bc0a70001f827005d
:1032e000f0ff37000df8a300020032001e000700b7
:1032f000190007000bf8a300eaff32000b30a7000b
:1033000001f0a200e7ff37000df8a300f9ff3a0033
:10331000f7ff37000801be000b000700e6ff320090
:1033200001003c000df0a2006000b8000df0a70005
:1033300009000700dbff37000b000700f1ff270043
:10334000f0ff2f00d7ff370001000700b3fc370064
:1033500001f823000000050001f827000000050027
:103360002002200001003700100220006044880085
:1033700000000600889fbe008a9fbe008c9fbe0092
:10338000820578000004be0041fe07000800be0070
:103390006420e1000700390002003a00f1ff270035
:1033a000f0ff2f000160a00012022000624488009c
:1033b000550037006120e10003003a000b00a70030
:1033c00001f823005000370001f0a10002002100a5
:1033d0009364240091fc07000800be00040035003f
:1033e000b2fd2000930c24000c0307000004be0073
:1033f0000005eb000b00a6004f0dde0001f0a10060
:103400000004be0032982f0023ea2300c2fe07000a
:103410000001eb0003f023000b00a70003f82300da
:10342000a4fa0700e4fc07000000a7000a00a200bd
:1034300092fd07000b00e0000300320002002000b4
:1034400003f023009afa070001f0a2000006be0074
:103450000200200093042400affe07000801be0014
:1034600094fa0700809fbe000c00be0022a22a0032
:10347000d3a72300a8fe07004f01be008dfa070066
:103480000004be0001f0a100020020000398230008
:1034900062fc07000800be00190035000001be00f4
:1034a0009dfe07000006be00b2c52900e3622300ae
:1034b00099fe070022222b00f3942b007dfa0700cf
:1034c0000c01be0094fe0700e273280083c02300b5
:1034d00078fa07000c01be008ffe070042aa2a00fe
:1034e000a3e22b0073fa07000c01be008afe07005e
:1034f0000801be0088fe07000801be006dfa070043
:103500000a00a70001f0a2004f06be004f05be0052
:103510004f04be00000006000001eb0095ff3700dd
:10352000889fbe008a9fbe008c1f78000004be00ea
:10353000d7fd07000478a30026003a006120e100cf
:103540002500320009f8a30025003a006420e100bc
:1035500021003200f507b1000508a3000200320087
:1035600000004000818048006044b8000310200043
:10357000020020000000400081804800080544004f
:1035800089854c000a0541008b8549000a055000d9
:103590008b855800030033000a00be00020474004b
:1035a000838474008301d1000281d300830f7100f2
:1035b000f0ff3a008904d1000884d300600149007b
:1035c00082017800c1adde00fb07b0008afd070074
:1035d000d5fd37000960a0000800be00d2fd37000d
:1035e0001202200062448800f0ff2f00f1ff270044
:1035f000cdfd37001400fa00889fbe008a9fbe00f0
:103600008c9fbe000005be000206be006800470099
:103610000c90be000a90be00b50107006400e100f6
:103620001a00320016003e006100e1001a0032006c
:103630006e049000fe0490000e0b90009e0b900014
:103640006011b8009e0590000b38b100d501200034
:1036500082817100610164008703d1000683d30079
:103660008984d3000884d3008502e900f8ff3a007a
:1036700061fd07000df0a70001f0a000c3fb3700bb
:10368000f1ff2700f0ff2f00c0fb370001f82700f3
:1036900000002000f7ff37006000b800f5ff37009a
:1036a0006022b800060220000000d0008180d20015
:1036b0000482d2008582d2000000a00002025200e3
:1036c00083825a00030031000202420083824a00d2
:1036d0000000a1000603e900f3ff3a000000060025
:1036e000efff07000400be0000000600889fbe0038
:1036f0008a9fbe0030044200b0844a0030054b006f
:1037000090854b006000b1000898be000a90be0092
:103710000440e10005c8e10006d0e10007d8e1005f
:1037200002003100680040001008e8004f05be00ac
:103730004f04be0000000600889fbe008a9fbe00a6
:103740003004be002005be000418540005985c003b
:1037500006185d0007985d00110020000440e1009c
:1037600005c8e10006d0e10007d8e10001003900fa
:103770008000eb00108810004f05be004f04be0013
:10378000000006001200fa00889fbe008a9fbe005b
:103790008c9fbe00e0b79f00f1b79f0082bf9f00e3
:1037a00093bf9f000605be000404be000000eb00ae
:1037b000d0b79f00c0b79f00b0b79f00a0b79f00d1
:1037c00090b79f000006eb005fb19700cfb0970065
:1037d000820141003fb097000200e00004003d007c
:1037e000370007007e805700c0ff07000300370046
:1037f000330007007e805700cfff0700dfb6970039
:103800000d00e0000c0035006fb29700ffb297008a
:103810000fbb97009fbb9700100020000100200005
:103820006011b8000002720081827200020373000e
:10383000838373001b0007000c06e80001042000ce
:10384000810f5600e0ff3a000d00e00004003d004b
:103850000802be000a03be007e805700a3ff0700d7
:103860005fa897000000e00005003a001fb2970033
:10387000afb297003fb39700cfb39700090007009e
:103880006fb09700ffb097000fb997009fb99700ee
:103890004f06be004f05be004f04be000080fa0078
:1038a000000006000100070000000600a4b79f000a
:1038b000b5b79f00c6b79f00d7b79f0000000600ae
:1038c0004f09de0082817100b3b79f004f01de0017
:1038d0008180400082807000a1b79f008fb0970068
:1038e0004f09de00000040000200700090b79f000a
:1038f0007fa897004f01de00818040008280700029
:1039000081b79f000d0007004f3ade000000400025
:1039100004007000f0af9f0008000700040242009e
:1039200085824a0006034b0087834b00dfff0700b8
:103930000802be000a03be00000006002fb2970076
:10394000bfb297004fb39700dfb3970000000600a7
:10395000881f780018002000881f780089ff070062
:103960008f87e9004f04780000000600801feb00fd
:1039700084ff07008f87e90000000600889fbe00d3
:103980008a9fbe00e00f5000e08f5800e00f590002
:10399000e08f59000c003d006044b8006055b8004d
:1039a0000000540081805c0002015d0083815d00a5
:1039b000180020001500070008003d00180007004f
:1039c0000004eb00050037000004eb000f000700c7
:1039d00002003d001200070018002000dcff070075
:1039e0000800e000060032006022b8006033b80032
:1039f0000000520081805a0002015b0083815b005d
:103a00004f05be004f04be0000000600e00f52004c
:103a1000e08f5a00e00f5b00e08f5b0000000600c3
:103a20006044b8006055b8000402540085825c0010
:103a300006035d0087835d0000000600889fbe00ce
:103a40008a9fbe008c1f7800e00f5000e08f580066
:103a5000e00f5900e08f59000d003d006044b800b0
:103a60006055b8000000540081805c0002015d00d8
:103a700083815d001c0020000820e10009a8e1000e
:103a80000ab0e1000bb8e1000d003d00080037006e
:103a90000006eb00e00f5200e08f5a00e00f5b00e1
:103aa000e08f5b0006003d006044b8006055b80040
:103ab0000402540085825c0006035d0087835d007c
:103ac000aaff07000c00e000060032006022b800e8
:103ad0006033b8000000520081805a0002015b0090
:103ae00083815b004f0678004f05be004f04be0087
:103af00000000600889fbe008a9fbe008c1f7800d1
:103b00000006eb00e00f5000e08f5800e00f590076
:103b1000e08f590007003d006044b8006055b800d0
:103b20000000540081805c0002015d0083815d0023
:103b30001c002000e00f5200e08f5a00e00f5b00f5
:103b4000e08f5b0007003d006044b8006055b8009e
:103b50000402540085825c0006035d0087835d00db
:103b60000c00a200f70107000c00e0000600320084
:103b70006022b8006033b8000000520081805a0013
:103b800002015b0083815b004f0678004f05be0099
:103b90004f04be00000006000003be003cfc07000e
:103ba0006220e100020032000600be0005000500b0
:103bb000e507b100f107b20004f023008480700033
:103bc00007f0a70001f0a00024000500889fbe00b8
:103bd0008a9fbe008c9fbe000404be000605be0086
:103be000809fbe00829fbe002f0007000406780061
:103bf0000800be000a01be002b0007008406780002
:103c00004f03be004f02be008d4f76007fb097007d
:103c100013003300f0ff2f008b8f6b0006003b007a
:103c20000d0666000c00a7000a00370007f0a6008a
:103c3000100020000a003700880f5200898f5a00b8
:103c40008a0f5b008b8f5b0003003900100020009f
:103c500001003e000000200007f0a7000000ea007d
:103c60004f06be004f05be004f04be000000060018
:103c7000e48240001078a300070032006402400094
:103c80001178a3003400be001401be00040032000d
:103c90000330a700000006003500be001501be007d
:103ca0000330a0000000060005ff27000582610028
:103cb000070032000428e100010032002400050062
:103cc0000600070001003a00440005000408050052
:103cd00002000700f9ff3a00140005006f8261003e
:103ce00081027000850271008502720000000600ea
:103cf000800078005002be005003be004439de0050
:103d0000f700b200f37f20000301610009003200d8
:103d10000218e10016003a00850172008301730069
:103d2000838173000008200015003a004000200045
:103d300013003700850172008301730083817300d3
:103d400005003a0004a8be0006a8be00100020002e
:103d50000b0037000201e9000402420085824a009c
:103d600006034b0087834b000748a300f9ff32008e
:103d70000740a00004a8be0006a8be002000200046
:103d8000800098009200980000000600889fbe0006
:103d90008a9fbe008c9fbe000004be00bcfb0700d3
:103da0000800be006420e10048003e0055003200db
:103db00072212700132b24001afa070047003c0049
:103dc0000800be00c2ec2800e32c2c0013fa070008
:103dd000470035000800be0001f0a10002002000ed
:103de000033823000dfa0700430035000800be0029
:103df000b2a32a0083fb230047fc07000200200037
:103e000003f0230001f0a70003f0a00029f8070049
:103e100069fa07000005be0018fb070001f0a200c8
:103e20000006be000200280013f323003afc07003e
:103e30000801be001ff80700809fbe000c00be00f6
:103e400032082800e3952b0033fc07004f01be0029
:103e500018f807000006be000001be002efc070097
:103e6000809fbe004241250083b823002afc070042
:103e70000200200003e823000ef807000c01be003a
:103e800025fc07000006be004f00be00f2f92b0023
:103e9000c3d4230020fc07000200200003f023000d
:103ea00004f807000c01be0001f807000001be0085
:103eb0000c00be0024f907000200200003f02300dc
:103ec000fcf7070061014500a50007004f06be0092
:103ed0004f05be004f04be000000060001f8270099
:103ee000000020002202200062448800f7ff370013
:103ef0006000b800fbff370001f82300000020003d
:103f0000f2ff370009f8a300f0ff32006000b800ac
:103f1000eeff3700889fbe008a9fbe000003be00f0
:103f20005bfb0700850578008281520002002000bb
:103f30006220e10004003a00f307b10004003500fc
:103f40007718e100040035000600be0014003700b9
:103f50006000b8000f003700f50f2000faff2f00b7
:103f60008502d1000a85d3008301e900fcff3b00f4
:103f70008184620000046500890f7400f2ff320042
:103f80008582ea000a85ea008184620000046500f7
:103f900019fb070007f0a70001f0a0000081eb006b
:103fa0000200e0004f05be004f04be000000060006
:103fb000889fbe008a9fbe00841f780049fb0700cf
:103fc0004f00780011003300f0ff2f00838f6c004a
:103fd00006003b00040565000a00a7000800370042
:103fe00009f0a6001000200008003700820f5400de
:103ff000838f5c00030039001000200001003e00a8
:104000000000200009f0a7000000ea004f05be00f4
:104010004f04be000000e000000006000400200085
:1040200000003700889fbe008a9fbe008c1f78006a
:104030004f26dd002bfb070032fb33006120e1003f
:10404000430032006250e10041003e003e00390072
:104050006420e1003c003200058255000f003b0067
:104060000402e80038003a00800f5300818f5b00a3
:10407000350034000800be0003f0a10001f0a600e6
:1040800003f0a0000cf0a7008af7070026fb37001a
:104090000603430087834b000c464600000553008f
:1040a00081855b00020033000a03be000c00a00003
:1040b0000402e900f6ff3b00850578000602430094
:1040c00087824b0004003a006000b80009f0a700a6
:1040d00001f0a00014fb37000002520081825a0058
:1040e0000704e000040033000603430087834b000d
:1040f0008b05e900faff3700090578000604be00c9
:104100000203be006011b800bbfa0700e00f5200c6
:10411000e08f5a000700350002003c000c08a300a5
:10412000040032000601be0003f0a0000cf0a7005e
:1041300060f707000a85680001f0a1000af0a700f7
:1041400001f0a000f8fa37000800be00f6fa3700c8
:10415000100220000cf0a60060448800f6fa370038
:104160000003be00cafa07006220e100020032002c
:104170000600be000000060085024100e30f20009b
:104180000328e10005003c00a3fe2f000328e10006
:1041900007003d000500200001003700f50f20005a
:1041a00020022000604488006000b800080037004a
:1041b000130020008381520005003d008100d100e2
:1041c0000080d3008301e800fcff3a0005002000d6
:1041d000c72add00f107b2008580700007f0a70054
:1041e00001f0a00000000600889fbe008a9fbe006c
:1041f0008c9fbe0068fe0700850478000005be00a5
:104200006420e10049003e006220e100030032002a
:10421000090035000bf8a300440032000bf8a3009e
:10422000080032001002200060448800f0ff2f00d8
:10423000f1ff27003d00370001f82f0000002000ab
:104240003a0037003d00070019f707000006be00de
:104250000a00be00324f200053f32300f1f807009c
:10426000060034000c00be003400070010f7070001
:104270000006be000a00be00020037008904e90003
:104280000c00be002d00070023fb07002b000700d9
:1042900008f707000001be000c00be002af8070066
:1042a0000005be000001be001bfb07000006be00ab
:1042b000a2f32300430d2c00fef60700809fbe00f2
:1042c0000c00be00d2e32700d3f02b0012fb070046
:1042d0004f01be001cf807000006be000a01be0028
:1042e0000dfb07000a01be00f2f607000006be0043
:1042f0006148b900e1f907000005be003208280056
:10430000e3952b0004fb07000c01be00e9f6070053
:104310000006be000a00be000200280013f32300be
:10432000fdfa07000c01be00e2f607004f06be00d2
:104330004f05be004f04be000000060003f023003e
:1043400002000500889fbe008a9fbe008c9fbe00b1
:104350000404b8000506b8008904460060854e00d4
:104360000606b8000a054600e0854e000706b800bc
:104370008b054600040eb800890446000a854e00ed
:10438000e0854d00050eb8000a0546008b854e00fd
:10439000060eb8008b0546000416b8000a05460054
:1043a0008b854e000516b8008b054600041eb8002c
:1043b0008b0546000800be000a01be004f06be0085
:1043c0004f05be004f04be00000006008000eb0059
:1043d0001001be000000eb00bf0037008001780034
:1043e00002003700b15978000201e9000200e00044
:1043f000fcff3a0000000600889fbe005035810097
:104400000000e00001003200000001006035810082
:104410000000e0000100320000000100806a22007c
:104420001004e00022003a00f04b8100014c8100b2
:1044300088002000d2602600930120004608070073
:10444000f2352f00e3c623000000410081804900bf
:104450000804e900f7ff3a00e86a22000908200092
:1044600088844400d2602600930120003a080700a7
:10447000f2352f00e3c6230000004100818049008f
:1044800000acbe00890f5400f6ff3a00f04b8900e3
:10449000014c8900703981008139810070358900b3
:1044a0008135890011c0b300806a2200014878007c
:1044b000d260260093012000f04b8100014c810066
:1044c00025080700f2352f00e3c623000002410053
:1044d00081824900f44b8900054c8900e06a220082
:1044e000100078007f0160004211dd00206b220087
:1044f000020140001200be0070358900813589003c
:104500000489be000100780000f0a1004f04be0045
:1045100000000600889fbe0000047800503581002e
:104520000000e0000100320000000100806a22006b
:104530000048eb00603581000000e000010032001f
:10454000000001008004eb00f84b8900094c890051
:104550004f04be0000000600020037000304e00024
:10456000060032000001780002007800b0417800b7
:1045700081cf5100f9ff3a00010037000001eb0044
:104580000200780000000600020037000204e0008c
:104590000b00320081017800000278003041780081
:1045a000b14f5100f9ff3200100020001442780092
:1045b000934f5200030031000080eb000000060022
:1045c0000000eb00000006008001780002003700c8
:1045d000845978000201e9000200e0000600320080
:1045e000314278000404e000f9ff3a00020037008d
:1045f0008059eb000201e9000200e000fcff3a00f4
:1046000000000600889fbe00810478000000e000e2
:1046100002003a00284c81000100370000047800b5
:104620000800be00fc010700000444001804e0007c
:1046300004003a0020982200204c89000004eb007e
:10464000070037000800be00e20107000000440038
:104650001004e000010032000058eb00204c8900fb
:10466000080078004f04be000000060080027800b9
:10467000010378000500e000030034000501e900b3
:104680004291de00090037000001eb00e38f420099
:1046900006003d00e48112004200200011000900e4
:1046a0008201d800000178000201e8006382620004
:1046b0004386220004003a00c38722000500e00080
:1046c00001003a00438622008600430081814100b8
:1046d0001300410000000600ea874700889fbe00e3
:1046e0008a9fbe008c9fbe008e1f78000004780059
:1046f0000ae82700ab3a28000205450083854d00f3
:10470000dab79f00ebb79f000800e00001003a0015
:10471000a8952200010c9800021825001300200023
:104720000a00be00defb07000006be00610040007c
:10473000e080480072002000030020007707070097
:1047400060049800d2162000030020000c00be0078
:104750003ff707000001be000007eb008e04510088
:104760008000eb0009007800f2b79f0083bf9f0034
:10477000beff070000027800d016200000c8b90074
:10478000cfa2de000000420081804a000e07e80050
:104790007fb197008fb99700800f5600818f5e0020
:1047a000eeff35000006560081865e005904980031
:1047b0007c049800638064004186220004003a0073
:1047c000c18722000900e00001003a004186220072
:1047d000f6804000c00020000000e90001017800e0
:1047e00021027800cfa2de00840f5600858f5e0084
:1047f000f9ff3500400498000c06e8001206560048
:104800003c04980002182500130020000a00be0096
:10481000b3fb07000005be0002e1200003002000fa
:104820009ffb07002004980002e120000300200005
:104830000a00be00aafb07000005be00c20320005c
:104840000300200096fb070010049800c20320001c
:10485000030020000a00be00a1fb0700000c780046
:10486000080890000000e00005003d000800780006
:1048700020000700000c98000000e00007003c004a
:10488000080078004f0778004f06be004f05be00b5
:104890004f04be00af00b100000006000ae1200096
:1048a0000b0020005fb09700efb0970000054500b7
:1048b00081854d0098ff3700804722006601370050
:1048c000881f7800889722001804e00003003a004f
:1048d000f9ff070020c0b300004c78001000200052
:1048e0004f04780000000600b04b8100aa0037009a
:1048f000fdff3700f6874700889fbe008a9fbe00f5
:104900008c9fbe008e1f780000047800ecff07002b
:10491000204981000000e000010032000000010099
:1049200010098100a14b8100808f50001c003200d3
:104930001004e0000f003a00200981001004e0009c
:1049400002003a005d02070020098900e2fd2f0005
:104950000f0141003100200020098100dd01070026
:10496000100989001004e000020032002112220028
:104970008008e900100981005001070080047800d8
:104980000085eb000900e0006e003200b04b8100b2
:1049900081000700b94b890010098100a04b8900f4
:1049a0008000eb005800900030ff07008004780082
:1049b000780090007800b9002801900000014100c3
:1049c00082b79f00d8009000d01620000088b90060
:1049d00061004000e08048004fc9de0000804400d4
:1049e000810049007200200003002000cb06070070
:1049f000ee024000b44b81008006eb000005eb00a6
:104a00000901780088017800470037006484450078
:104a10008004eb0053009000ec407c008180fb00a0
:104a2000808f50003f003c00e3804500ecc07800e0
:104a30008180fb00b2b79f00e3b79f00d4b79f000f
:104a4000c5b79f0096b79f00a7b79f0007ff070055
:104a50008b80e800ecc078008180fb003fb19700bc
:104a60008280500080804000f1b79f006c467f003c
:104a70008cf79f00efb197005fb29700cfb297001d
:104a80001fb397000c04e000130032000c87fb00fa
:104a90000e875200010747007c002000110009002a
:104aa0000c07d800010778000006eb000e00e000bc
:104ab00001003200670617007fb097000c0040002d
:104ac000f0b79f008ff09700e7cf500002003e0044
:104ad00067005000f0b79f007fb697007860b9007c
:104ae0008b03e800e6c37b008783fb000080430064
:104af0008fb09700808f500012003500e6407c0098
:104b0000e985450066c07d0080cf500002003a0074
:104b10000a00e000020032000005eb00010037004f
:104b20001a0020008d06e800656bb8008405780047
:104b3000060678000407780066407a00e14f4000de
:104b4000b2ff3a000a0078004f0778004f06be0017
:104b50004f05be004f04be006f01b100000006000b
:104b6000204981000000e000010032000000010047
:104b7000c00f2200000006008001780064122200ad
:104b8000820f2200a101200060922200d5010700bf
:104b900060922200000006000000e0002f003200ba
:104ba000c0017800e38f51002c0036000308a300f9
:104bb0002a003a00414c81000100e000020032006e
:104bc000810f50000400310011009800404c890012
:104bd0001600370082007800110190000200e0000a
:104be00002003200800f5100faff390011027800f4
:104bf00084824000850f500018003900808f5200d9
:104c000003003a00830842000100780007003700e3
:104c10000200e0000300320083014000830f5100d6
:104c20000e0039001200980090009800900090004b
:104c30000100e0000900320010014000828f5000a6
:104c400006003a00629822000009eb00100178008b
:104c5000110841009100900011009800000006002a
:104c6000889fbe0000047800314c81000100e00004
:104c700002003200010078000d003700414c810035
:104c80008098220004003700910f54002500360060
:104c90000180e800910090000100e000faff3a0076
:104ca00010003700920f54001e0036000280e8000a
:104cb000100178000200e000faff3a0011017800cc
:104cc000414c81008098220004003700910f54006d
:104cd000140036000180e80091009000828f50009f
:104ce000faff3a00794c8100888f540001003100ae
:104cf0008804780009007800ec0007000000e0005c
:104d000004003a00888f5400050032008904d10065
:104d1000f5ff3700091878009fff0700d2ff370022
:104d20000000eb004f04be0000000600881f780062
:104d3000630440000800a1008000eb00800f5400d5
:104d400021003600e30f540001003e00480020001f
:104d500008007800c2ff07008000eb000000e000c0
:104d600019003200900078009101780064815100b0
:104d7000880f5100030031001101900002087800f3
:104d80000700370008814000020878009101900078
:104d900013019800100178001109140088087800a8
:104da000100178000000eb000200e0000400320077
:104db000920190000300e000010032000280e80050
:104dc000304c89008180e800010078004f047800b1
:104dd00000000600000178000700370086cf52006f
:104de00002003a00008051000000060034437800c1
:104df0000604e000f9ff3a0082017800b242780030
:104e00000504e0000200320001027800f7ff3700dd
:104e10000080510000000600000178000800370003
:104e200081027800354378000604e00002003a0071
:104e30000080510000000600864f5200f9ff3a0042
:104e400082017800324278000404e000f4ff3a0066
:104e50000080510000000600010020000100e00079
:104e600008003200010080000100e000050032006f
:104e70008100e9000100880081804000020080007c
:104e800000b1780000000600000178000000eb008f
:104e9000020037006a02b900048041008100e90085
:104ea00005003300b201fb000303b100e98f51009c
:104eb000f8ff36000080eb0000000600e4874700a2
:104ec000889fbe008a9fbe008c9fbe008e1f780008
:104ed000904678000006eb000d04e0006c00320004
:104ee0008004e80009007800280020000200370054
:104ef0000000e8000804e8008d00fb0096fd0700b4
:104f00000000e000faff3a006540b90087ff0700a3
:104f1000000578000a0678000a00e0005c00320014
:104f20000a0478008005eb0080c2b300994f10009e
:104f30000b003a000900e80041002000d2ff070002
:104f400041892f00810540004e003300d940900078
:104f500090c2b30080cf50004a003a00e68444007b
:104f60008bf79f004b449800210020000900780037
:104f7000c5ff07000040e90090f79f00304498000b
:104f80008984e8002100200009007800beff0700a6
:104f90000047e9002e4498008984e8001900fb00ce
:104fa0000003b100e90f500006003e002100200080
:104fb00009007800b4ff0700104498008984e800d5
:104fc000020037000040eb00104498001ff09700eb
:104fd000eb4f50002b003e0030c6b300804f57000f
:104fe00028003e009840900080cf500025003e00f1
:104ff00019407800b1c2b300814f50000500320063
:1050000081c0e800814f500002003200004ceb00ec
:105010000f0037009940900000cdb30000c0400061
:10502000e64f500017003e0002c3b30082cf50008d
:1050300001003a0070c0b300004c7800b1c2b30068
:1050400099cf100001003a00674c40008984e800c5
:10505000194078000004e00005003a0065044400af
:1050600000cceb000ff09700404498000800370098
:105070008d4f500003003a00650444008904e800a5
:10508000a9ff37000a007800c3fe07000006eb0006
:105090000c0078004f0778004f06be004f05be0099
:1050a0004f04be004f00b1000000060080007800f1
:1050b0000000eb000100e000050034000100780072
:1050c000d9f20700e10f400001003a000000eb00b8
:1050d00000000600889fbe008a9fbe000004be003c
:1050e00002057800984578000b04e00001003200ca
:1050f0000804e8008b00fb000800780016fd07009c
:105100000000e00003003a000800780001040700f6
:10511000000044000900e00002003c00080d5000bf
:10512000080037001004e00003003a00000deb0017
:1051300000047800030037008904e9000004e80057
:10514000ecff3700080078004f05be004f04be009a
:1051500000000600889fbe008a9fbe008c9fbe0094
:10516000000478004c912200640546008a0578000e
:1051700019002000984678000d00fb00c2000700cf
:105180000000e000360032000d6e7800b86d780047
:105190008904e800e48f5400f6ff3a0018407800d4
:1051a000d1c2b300814f50000300320081c0e9003a
:1051b000814f500002003a000804e8000100370067
:1051c00001407800d1912200804878009840780012
:1051d0000101fb000203b1000000eb00e90f5100e8
:1051e00020003e00e0912200014878008804780009
:1051f000d94078000101fb000203b1000000eb0080
:10520000e90f510017003e00f0912200014878009c
:105210005900fb009c0007000000e0000b0032007a
:105220000884e800bb912200b84478000900fb0024
:10523000950007000000e00009003200096d7800c9
:10524000880478008b0f5500f7ff3a000000eb0050
:105250001904e00003003a004091220001003700e9
:105260000000eb004f06be004f05be004f04be001d
:1052700000000600609022007ff20700604c890069
:105280000000e00007003a00f09022007af20700e8
:10529000604c89000000e00002003200adff070012
:1052a000604c8900604c81000000e00002003a0080
:1052b00020912200604c890000000600881f7800c1
:1052c000a89822001804e00003003a00e9ff070054
:1052d00020c0b300004c7800604c81004f0478007f
:1052e000000006008f02b000889fbe008a9fbe00ab
:1052f0008c9fbe008e1f78000007780001067800a2
:105300000204780083bf9f00f4b79f000800780074
:1053100080030700800478008e0578000005eb000c
:10532000480037000a05e9000a004500c1fc2f00cb
:105330008f8040000080400010049000c004900066
:10534000184078008086fb008d06ea00cf6ede00f4
:105350000d0444008d84540051c2b300814f5000ad
:1053600002003a000900e00005003a008d0f5600e7
:105370003e0039008d0054000d0178001f003700f9
:105380009846780050c4b30080cf56000300320026
:105390006a40400080cf560002003a000804e8004e
:1053a000010037008046eb00a5fd2f008f824200f0
:1053b000c4fc2f000f024200984178000d41780094
:1053c000ffb097000fb89700480107000d04e000f8
:1053d000010032008904e9000804e8008904e900ba
:1053e000efa697000d00e000090034008d0f560075
:1053f0001e0039000d017800800078000b00780055
:10540000f6fb07008d8545000d0656000d003700a0
:105410000900e00009003200e20f550007003e00dd
:105420008a004500c2fc2f000f01410081004100ad
:1054300098009800c90098000a05e8008d04ea0069
:10544000000478000900e000bdff3a000a00e00017
:10545000b4ff3a000000eb000c00e0000400320052
:10546000804deb000e805500010037000000eb007e
:105470004f0778004f06be004f05be004f04be0028
:105480008f02b100000006001004b10007003500d3
:105490009001b100040034007000b1000300350039
:1054a0009001b10001003c00100005000000050063
:1054b00080805000e78040006702410073002000b8
:1054c000110009008300d8000100520011000900fa
:1054d0000300d800000006000200fa00889fbe000a
:1054e0008a9fbe008004780081057800a200200019
:1054f000ea8057000b0078000c0307003fbd9700bf
:10550000280020008a8f5500330032009a45780029
:10551000f2c2b30082cf55002f003a00d9019000ab
:10552000c276200002814100cf91de00820f500040
:10553000838f580023003a000a05e800a2002000eb
:10554000ea8057000a007800f80207000001be0058
:10555000bfb89700810f55001f00320091cf150092
:105560001d003a00490290000402e800cfa2de00cc
:10557000840f5100858f590005003200180020006b
:10558000820f5200838f5a0013003d001100370034
:105590000100e800a2002000ea805700e3020700b3
:1055a0003fb99700820f55000b003200390190007f
:1055b000cf91de000004eb00820f5000838f580073
:1055c0000500320018002000800f5100818f590023
:1055d00001003d000084eb00080078004f05be008c
:1055e0004f04be000080fa00000006000000050025
:1055f000889fbe008a1f780080047800010478002c
:10560000080178008900780010002000a8ff07003a
:1056100000057800f5ff07000002780084015400bf
:105620003917b000088454007200200011000900ee
:105630000204d80001047800d116200088804000c0
:1056400084804000110009008200d800b0162000bc
:10565000808f510003003400e28f500003003a00b5
