:020000040000fa
:080000000001040000000000f3
:020000040000fa
:04000800500c000098
:020000040000fa
:04000c00500c000094
:020000040000fa
:04001000500c000090
:020000040000fa
:04001400500c00008c
:020000040000fa
:04001800500c000088
:020000040000fa
:04001c00500c000084
:020000040000fa
:04002000500c000080
:020000040000fa
:04002400500c00007c
:020000040000fa
:04002800500c000078
:020000040000fa
:04002c00500c000074
:020000040000fa
:04003000500c000070
:020000040000fa
:04003400f8030000cd
:020000040000fa
:04003800500c000068
:020000040000fa
:04003c00500c000064
:020000040000fa
:04004000500c000060
:020000040000fa
:04004400540800005c
:020000040000fa
:04004800500c000058
:020000040000fa
:04004c00500c000054
:020000040000fa
:04005000500c000050
:020000040000fa
:040054005a0200004c
:020000040000fa
:04005800500c000048
:020000040000fa
:04005c00500c000044
:020000040000fa
:04006000500c000040
:020000040000fa
:04006400500c00003c
:020000040000fa
:04006800500c000038
:020000040000fa
:04006c00500c000034
:020000040000fa
:04007000500c000030
:020000040000fa
:04007400320700004f
:020000040000fa
:04007800fe0700007f
:020000040000fa
:04007c00500c000024
:020000040000fa
:04008000500c000020
:020000040000fa
:04008400500c00001c
:020000040000fa
:04008800500c000018
:020000040000fa
:04008c00500c000014
:020000040000fa
:04009000500c000010
:020000040000fa
:04009400500c00000c
:020000040000fa
:04009800500c000008
:020000040000fa
:04009c002808000030
:020000040000fa
:0400a000e801000073
:020000040000fa
:0400a400500c0000fc
:020000040000fa
:0400a800500c0000f8
:020000040000fa
:0400ac00500c0000f4
:020000040000fa
:0400b000500c0000f0
:020000040000fa
:0400b400500c0000ec
:020000040000fa
:0400b800500c0000e8
:020000040000fa
:0400bc00500c0000e4
:020000040000fa
:0400c000500c0000e0
:020000040000fa
:0400c400500c0000dc
:020000040000fa
:0400c800500c0000d8
:020000040000fa
:0400cc00500c0000d4
:020000040000fa
:0400d000500c0000d0
:020000040000fa
:0400d400500c0000cc
:020000040000fa
:0400d800500c0000c8
:020000040000fa
:0400dc00500c0000c4
:020000040000fa
:0400e000500c0000c0
:020000040000fa
:0400e400500c0000bc
:020000040000fa
:0400e800500c0000b8
:020000040000fa
:0400ec00500c0000b4
:020000040000fa
:0400f000500c0000b0
:020000040000fa
:0400f400500c0000ac
:020000040000fa
:0400f800500c0000a8
:020000040000fa
:0400fc00d207000027
:020000040000fa
:04010000500c00009f
:020000040000fa
:04010400500c00009b
:020000040000fa
:04010800500c000097
:020000040000fa
:04010c00500c000093
:020000040000fa
:04011000500c00008f
:020000040000fa
:04011400500c00008b
:020000040000fa
:04011800500c000087
:020000040000fa
:04011c00500c000083
:020000040000fa
:04012000500c00007f
:020000040000fa
:04012400500c00007b
:020000040000fa
:04012800500c000077
:020000040000fa
:04012c00500c000073
:020000040000fa
:04013000500c00006f
:020000040000fa
:04013400500c00006b
:020000040000fa
:04013800500c000067
:020000040000fa
:04013c00500c000063
:020000040000fa
:04014000500c00005f
:020000040000fa
:04014400500c00005b
:020000040000fa
:04014800500c000057
:020000040000fa
:04014c00500c000053
:020000040000fa
:04015000500c00004f
:020000040000fa
:04015400500c00004b
:020000040000fa
:04015800500c000047
:020000040000fa
:04015c00500c000043
:020000040000fa
:04016000500c00003f
:020000040000fa
:04016400500c00003b
:020000040000fa
:04016800500c000037
:020000040000fa
:04016c00500c000033
:020000040000fa
:04017000500c00002f
:020000040000fa
:04017400500c00002b
:020000040000fa
:04017800500c000027
:020000040000fa
:04017c00500c000023
:020000040000fa
:04018000500c00001f
:020000040000fa
:04018400500c00001b
:020000040000fa
:04018800500c000017
:020000040000fa
:04018c00500c000013
:020000040000fa
:04019000500c00000f
:020000040000fa
:04019400500c00000b
:020000040000fa
:04019800500c000007
:020000040000fa
:04019c00500c000003
:020000040000fa
:0401a000500c0000ff
:020000040000fa
:0401a400500c0000fb
:020000040000fa
:0401a800500c0000f7
:020000040000fa
:0401ac00500c0000f3
:020000040000fa
:0401b000500c0000ef
:020000040000fa
:0401b400500c0000eb
:020000040000fa
:0401b800500c0000e7
:020000040000fa
:0401bc00500c0000e3
:020000040000fa
:0401c000500c0000df
:020000040000fa
:0401c400500c0000db
:020000040000fa
:0401c800500c0000d7
:020000040000fa
:0401cc00500c0000d3
:020000040000fa
:0401d000500c0000cf
:020000040000fa
:0401d400500c0000cb
:020000040000fa
:0401d800500c0000c7
:020000040000fa
:0401dc00500c0000c3
:020000040000fa
:0401e000500c0000bf
:020000040000fa
:0401e400500c0000bb
:020000040000fa
:0401e800500c0000b7
:020000040000fa
:0401ec00500c0000b3
:020000040000fa
:0401f000500c0000af
:020000040000fa
:0401f400500c0000ab
:020000040000fa
:0401f800500c0000a7
:020000040000fa
:0401fc00500c0000a3
:020000040000fa
:100200000f3922000e7f24000e018800000000003c
:10021000000020000000e000020032000001200089
:10022000200288000c00070000082f0011002000a9
:100230000f000700000020000000e0000200320074
:1002400000000200000000004e0902000000000053
:100250000040da000000fe00005d20000000e00029
:1002600002003200002020009001880000000600fb
:10027000a1028800800078000000eb001a0037001f
:10028000e280400054a0b4009101ba00e280400036
:1002900054a0b4009102ba00e280400054a0b4001f
:1002a0000002eb00472bde00f507b200a601880034
:1002b000602ce10008003a000049eb000201e80070
:1002c000020039003420ec0002f0a0008301e900b4
:1002d000f9ff3e00040037006128e1000100320010
:1002e0000082eb000b00070011c3ba001101ba0035
:1002f0000604e00003003a000200e000e0ff3a00dc
:1003000000000600f607b200a6028800820078000e
:10031000f5ff370004d0a300e20f49001c003900ac
:10032000810278003549ba000201e8000200390074
:100330003420ec0002f0a0008301e9000f0032003d
:100340002549ba000201e800020039003420ec001f
:1003500002f0a0008301e900080032000400e00080
:100360000600320015c9ba000201e8000200390097
:100370003420ec0002f0a0008301e9008180e80055
:1003800054a0b4000300e000e2ff3a0000000600c1
:100390009102ba00055978008301e900f7ff3200a5
:1003a000c82ade00055978008301e900f3ff320016
:1003b0000400e000f1ff320011d9ba00eeff37006f
:1003c000401e0400000000000000040000000000c7
:1003d0003600f800809fbe00829fbe00849fbe0052
:1003e000869fbe003200f8003400f80010002000a4
:1003f000a001880000202000900188000200fa007f
:10040000a01d8000004f7800800480006400600020
:100410000000e00004003a00801d80006e006000d3
:100420000000e000080032008bc0a9009040a90045
:10043000811d800000ff2f0000806000801d88006b
:100440009bc0a80012003700510480000000240067
:10045000008060000000e0000d003200d104800048
:1004600000002400008060000000e000080032006e
:100470008bc0a90011c0b3001e407800bad602009c
:10048000010000001e407800c6aa02000000000023
:100490000080fa003400f9003200f9004f03be007a
:1004a0004f02be004f01be004f00be003600f900f3
:1004b000004006003600f800809fbe00829fbe000c
:1004c000849fbe00869fbe003200f8003400f80012
:1004d00010002000a001880000202000900188006a
:1004e0000200fa00f01c8000004f780080048000b9
:1004f000620060000000e00004003a00d01c8000b0
:100500006e0060000000e000080032008960a90071
:100510009020a900d11c800000ff2f000080600007
:10052000d01c88009960a8001200370041048000a8
:1005300000802000008060000000e0000d0032001c
:10054000c104800000802000008060000000e00006
:10055000080032008960a90021c0b3001e40780065
:10056000bad60200010000001e4078009eab0200d7
:10057000000000000080fa003400f9003200f900a9
:100580004f03be004f02be004f01be004f00be0031
:100590003600f900004006000000fa00eae402001c
:1005a000010000000080fa00000006000000fa00d0
:1005b000b0e40200010000000080fa000000060024
:1005c0000000fa002ee50200010000000080fa00a1
:1005d000000006000000fa0026e50200010000000d
:1005e0000080fa00000006000200fa00004f7800c8
:1005f0001e40780072e50200010000000080fa0051
:10060000000006000200fa00004f78001e4078004b
:1006100036e50200010000000080fa00000006003c
:100620000200fa00004f7800114798001e40900029
:100630000080fb00e20f500003003a001e407800eb
:10064000f0ff0700030037001e407800e6ff0700b8
:10065000000000000080fa00000006000200fa001e
:10066000004f78000080fa00000006000000fa0049
:10067000eae40200010000000080fa000000060029
:100680000000fa00b0e40200010000000080fa005f
:10069000000006000000fa00f4ff07008000eb00f5
:1006a00010002000d2e5020001000000baff0700a0
:1006b000f3ff07005103200020002000d2e50200d4
:1006c00001000000b9ff07000080fa0000000600ea
:1006d0000800fa0010079800414798003207980078
:1006e0000000eb00000f78000000eb00000f780026
:1006f000130037003e009000e10f5000030032006d
:10070000e20f5000070032000c0037001e00780096
:100710009e0090000080400010407800b2ff07006b
:10072000060037001e0078009e0090000080400008
:1007300010407800b3ff0700000000001e0fe80023
:100740004e4090000080fb009e0f5000e9ff3c00ef
:100750000080fa00000006000000fa00400b2200b2
:1007600010407800e14f50001f003a009147800090
:1007700000402000008060000000e00003003a001c
:1007800010c0b300f6ac020000000000400b2200d5
:100790008040eb00014878002009220010407800da
:1007a0008080fb00000922001040780000c0e800b3
:1007b0000101780080407800600b2200c4ff070030
:1007c000aad60200010000009147800000402000ee
:1007d000008060000000e00003003a000040eb00f1
:1007e000f6ac0200000000000080fa0000000600e5
:1007f000801f78003200f8003400f800100020005c
:10080000a001880000202000900188000000fa006c
:1008100040048000680060000000e0000600320034
:10082000c0048000680060000000e00002003200a8
:100830008860a900000000000080fa003400f90080
:100840003200f9004f007800004006000000fa0076
:10085000201481000000a000201489000000eb009b
:10086000301489000080fa00000006000000fa0041
:10087000201481000000a1002014890020148100b0
:100880000010a100201489000000eb003014890042
:100890000080fa00000006000000fa004005800019
:1008a00000c0a10000d0a10000e0a0004005880029
:1008b0009021ef0070a92300900c880010012800ff
:1008c000a00c88008860a9009860a8000080fa0049
:1008d000000006000000fa0013000700410020009d
:1008e00010c0b30042000700014b200010c0b3004d
:1008f0005c000700029620000300200010c0b30037
:1009000092000700e100200010c0b300ad00070016
:10091000d6ff07008125200010c0b300c6000700e5
:100920000080fa00000006000000fa005005800078
:1009300000c0a10000d0a10000e0a0005005880088
:100940009621ef00408a2300e00c88001003280065
:10095000000d880088e0a90098e0a8000080fa0057
:10096000000006000000fa0088e0a90098e0a90055
:100970000080fa00000006000400fa00004f780032
:10098000110798001e4078000004e0000b003a00b8
:10099000501481000000a1005014890050148100ff
:1009a0000010a100501489000000eb0060148900c1
:1009b0000000eb00701489000b0037005014810018
:1009c0000000a00050148900501481000010a10004
:1009d000501489001e0090000000d10060148900ae
:1009e0009e009000711489000080fa00000006004b
:1009f0000400fa00004f7800110798001e407800ac
:100a00000004e0000b003a00101581000000a10076
:100a100010158900101581000010a1001015890023
:100a20000000eb00201589000000eb003015890064
:100a30000a003700101581000000a0001015890081
:100a4000101581000010a100101589000000eb00b6
:100a5000201589009e009000311589000080fa0061
:100a6000000006000400fa00004f7800110798000b
:100a70001e4078000004e0000b003a00c013810023
:100a80000000a100c0138900c01381000010a10064
:100a9000c01389000000eb00d01389000000eb00b8
:100aa000e01389000a003700c01381000000a00095
:100ab000c0138900c01381000010a100c013890079
:100ac0000000eb00d01389009e009000e113890024
:100ad0000080fa00000006000400fa00004f7800d1
:100ae000110798001e4078000004e0000b003a0057
:100af000801481000000a10080148900801481000e
:100b00000010a100801489000000eb0090148900ff
:100b10000000eb00a01489000a0037008014810057
:100b20000000a00080148900801481000010a10042
:100b3000801489000000eb00901489009e00900052
:100b4000a11489000080fa00000006000600fa00e7
:100b5000004f780012079800230798001e40780085
:100b60000004e0000b003a00f01381000000a10037
:100b7000f0138900f01381000010a100f013890028
:100b80000000eb00001489000000eb001014890045
:100b90000a003700f01381000000a000f013890064
:100ba000f01381000010a100f01389000000eb0099
:100bb000001489001e009000101489000080fa00c3
:100bc000000006000400fa00004f780011079800aa
:100bd0001e4078000004e0000b003a002014810061
:100be0000000a10020148900201481000010a10041
:100bf000201489000000eb00301489000000eb0095
:100c0000401489000a003700201481000000a00071
:100c100020148900201481000010a10020148900f4
:100c20000000eb00301489009e0090004114890000
:100c30000080fa00000006000400fa00004f78006f
:100c4000110798001e4078000004e0000b003a00f5
:100c5000701581000000a1007015890070158100d9
:100c60000010a100701589000000eb0080158900bc
:100c70000000eb00901589000a0037007015810014
:100c80000000a00070158900701581000010a100ff
:100c9000701589000000eb00801589009e0090000f
:100ca000911589000080fa00000006000000fa009b
:100cb00090138100620060000000e00066003200d6
:100cc000901381000010a10090138900d0138100bf
:100cd0000000e800d0138900d1138100e0138100e7
:100ce000808f5000050036000000eb00d013890013
:100cf000c01381000010a000c013890000148100ff
:100d00000000e80000148900011481001014810023
:100d1000808f5000050036000000eb0000148900b1
:100d2000f01381000010a000f013890080158100ed
:100d30000000e80080158900811581009015810070
:100d4000808f5000050036000000eb008015890000
:100d5000701581000010a00070158900f01481004a
:100d60000000e800f0148900f0148100e20f500048
:100d7000050036000000eb00f0148900d0c620000a
:100d800011c0b30001487800901481000000e80011
:100d90009014890090148100e50f50000500360082
:100da0000000eb0090148900c02f210011c0b30097
:100db000014878005061210010407800e34f500056
:100dc0000b003a00c01481000000e800c014890044
:100dd000c0148100e90f5000050036000000eb0050
:100de000c01489005061210011c0b300014878008f
:100df000501581000000e800501589005015810051
:100e0000e40f5000050036000000eb00501589008b
:100e100080cb210011c0b30001487800201481006c
:100e2000610060000000e0000c003200301481001e
:100e30000000e80030148900311481004014810062
:100e4000808f500005003600201481000010a000a3
:100e50002014890001003700000000000080fa0023
:100e6000000006003600f800809fbe00829fbe0092
:100e7000849fbe00869fbe003200f8003400f80058
:100e800010002000a00188000020200090018800b0
:100e90000200fa0050048000680060000000e000da
:100ea000360032008135800000082000008060009c
:100eb0000000e0001b003a000040eb00004f78000b
:100ec0000040eb00104798000040eb0010479800ee
:100ed0000c00370081358000000820000080600091
:100ee0000000e00004003a0050002000caf60200b2
:100ef000010000001e4fe8001e4090000040e80086
:100f0000104798001e409000f34f5000f1ff36004c
:100f10001e407800e34f5000020036000040eb0016
:100f2000004f7800813580000004200000806000c0
:100f30000000e00006003a00b04780000020a0005a
:100f4000b0478800303680000020a200303688008c
:100f50008135800000022000008060000000e00079
:100f600006003a00b04780000030a000b04788007b
:100f7000303680000020a200303688008a60a90048
:100f80000080fa003400f9003200f9004f03be007f
:100f90004f02be004f01be004f00be003600f900f8
:100fa00000400600809fbe003200f8003400f800c8
:100fb00010002000a001880000202000900188007f
:100fc0000000fa0071048000000220000080600030
:100fd0000000e000040032008ea0a90080478000dd
:100fe0000040a000804788000080fa003400f9002b
:100ff0003200f9004f00be0000400600801f78005c
:101000003200f8003400f80010002000a001880031
:1010100000202000900188000000fa0050048000a9
:10102000700060000000e000040032008a80a90027
:10103000a04780000080a000a04788000080fa0040
:101040003400f9003200f9004f007800004006003b
:10105000809fbe003200f8003400f800100020002d
:10106000a001880000202000900188000000fa0004
:101070005104800000002200008060000000e000b9
:10108000040032008ba0a900a04780000090a000bf
:10109000a04788000080fa003400f9003200f9000f
:1010a0004f00be00004006003600f800809fbe00e2
:1010b000829fbe00849fbe00869fbe003200f80063
:1010c0003400f80010002000a0018800002020005b
:1010d000900188000000fa00410480000008200010
:1010e000008060000000e00055003200c104800074
:1010f00000082000008060000000e0005000320086
:1011000088e0a90012c8bf000040e80012e8b7005c
:10111000901381000010a0009013890031368000e8
:10112000b0ff2f000080600030368800a000200053
:10113000caf6020001000000303680000020a00046
:101140003036880012c8bf000080fb0061006000dc
:10115000004078000004e00003003200b047800047
:101160000000a000b0478800601481000000e80083
:10117000601489006114810070148100808f500018
:10118000060036000000eb006014890060c8800093
:101190000000a00060c88800210037008135800071
:1011a00000082000008060000000e0001000320015
:1011b0001068ef008147800000022000008060007e
:1011c0000000e00003003200804780000050a100d2
:1011d0008047880013c8bf00e14f500010003a005c
:1011e000b04780000000a000b04788000c00370026
:1011f0001068ef0080358000700060000000e000a3
:1012000004003a00804780000030a000804788003a
:1012100003003700804780000030a100804788002d
:101220009147800000402000008060000000e00046
:1012300003003a00a04780000060a000a04788009b
:101240000080fa003400f9003200f9004f03be00bc
:101250004f02be004f01be004f00be003600f90035
:10126000004006000000fa00a085200040418800f0
:101270004087200050418800e08b200060418800ba
:101280009047800000a0a10090478800409226006f
:10129000404088000080fa00000006000000fa00cc
:1012a00083e0a90062e4020001000000edff0700f6
:1012b000a8be02000000000000192000f2f60200a3
:1012c000010000000ca1a800ac65020001000000b4
:1012d000606e020001000000921402000100000094
:1012e00000192000f2f60200010000006e58020012
:1012f000010000006a04020000000000c2ab02000e
:1013000000000000804780000070a1008047880036
:10131000a133800000082000008060000000e00091
:1013200014003a000fc8bf000004e00011003a00aa
:10133000a0002000f2f6020001000000a1338000ae
:1013400000082000008060000000e00009003a0072
:101350000fc8bf000004e00006003a00804780008c
:101360000070a0008047880010c0b300b0b0020039
:1013700000000000a1338000000820000080600011
:101380000000e00003003a00804780000070a000e9
:1013900080478800b62d020001000000e0302200e6
:1013a00086de02000000000000df80000000e00098
:1013b0001200320010df800021df8000e00f5000bb
:1013c000e08f58000d003200b0bd210031cfb300d6
:1013d00001487800b0188100c1188100c0e1880080
:1013e000d1e18800b0188100c11881000001be0061
:1013f000e0302200c0e102000000000000df8000b9
:101400000000e0002200320010df800021df8000b9
:10141000e00f5000e08f58001d0032004094200083
:10142000104078000004e00019003200b0bd210037
:1014300071cfb30001487800b0188100c118810055
:10144000c0e18800d1e18800b0188100c118810096
:101450000001be00e0302200c0e1020000000000f8
:101460008ce30200000000000060fe00b0bd21001f
:1014700011cfb30001487800b0188100c118810075
:101480000001be00e0302200c0e1020000000000c8
:10149000b439020001000000e0302200f28a0200ac
:1014a00001000000e0302200388d02000100000041
:1014b000887002000000000072d6020001000000e7
:1014c00098fd020000000000f29780000398800061
:1014d000e0898500f1898500020278000301780027
:1014e00080017800010078000302620000006100c2
:1014f0008000eb00c000dd00000020000001be0005
:101500006120b8000001710081817100e00f51007d
:10151000e08f590005003200b0188100c118810029
:1015200042c1b3002cfd020000000000e0898500ec
:10153000f189850040b0880051b08800b018810062
:10154000c118810080b0880091b0880020c0b3002d
:10155000760a02000100000083e0a8000060fe009f
:10156000e0912000104078000004e000020032000a
:1015700083e0a900ffff3700e091200010407800d1
:101580008040e800e0912000014878006e58020099
:1015900001000000e091200010407800e14f500071
:1015a0000200320083e0a900ffff3700e091200035
:1015b000104078008040e800e09120000148780069
:1015c000509d020001000000e091200010407800d2
:1015d000e24f50000200320083e0a900ffff370015
:1015e000e0912000104078008040e800e091200069
:1015f0000148780006cc020000000000e0912000c5
:1016000010407800e34f50000200320083e0a90050
:10161000ffff3700e0912000104078008040e80094
:10162000e0912000014878000e3202000000000026
:10163000e091200010407800e44f5000020032009a
:1016400083e0a900ffff3700e09120001040780000
:101650008040e800e091200001487800e0912000ff
:1016600010407800e54f50000200320083e0a900ee
:10167000ffff3700e0912000104078008040e80034
:10168000e091200001487800bcee0200010000005b
:10169000e091200010407800e64f50000200320038
:1016a00083e0a900ffff3700e091200010407800a0
:1016b0008040e800e0912000014878002c2e0200d4
:1016c00001000000e091200010407800e74f50003a
:1016d0000200320083e0a900ffff3700e091200004
:1016e000104078008040e800e09120000148780038
:1016f0005e96020001000000e0912000104078009a
:10170000e84f50000200320083e0a900ffff3700dd
:10171000e0912000104078008040e800e091200037
:1017200001487800ee0e020001000000e091200068
:1017300010407800e94f50000200320083e0a90019
:10174000ffff3700e0912000104078008040e80063
:10175000e0912000014878005edd020000000000fa
:10176000e091200010407800ea4f50000200320063
:1017700083e0a900ffff3700e091200010407800cf
:101780008040e800e091200001487800b89e020007
:1017900001000000e091200010407800eb4f500065
:1017a0000200320083e0a900ffff3700e091200033
:1017b000104078008040e800e09120000148780067
:1017c000a2a9020001000000e09120001040780072
:1017d000ec4f50000200320083e0a900ffff370009
:1017e000e0912000104078008040e800e091200067
:1017f00001487800e091200010407800ed4f500043
:101800000200320083e0a900ffff3700e0912000d2
:10181000104078008040e800e09120000148780006
:10182000aaa9020001000000e09120001040780009
:10183000ee4f50000200320083e0a900ffff3700a6
:10184000e0912000104078008040e800e091200006
:1018500001487800b2a6020001000000e0912000db
:1018600010407800ef4f50000200320083e0a900e2
:10187000ffff3700e0912000104078008040e80032
:10188000e0912000014878005606020000000000a8
:10189000e09120008040eb00014878002fff3700e6
:1018a0000040da000000fe00889fbe00800478003f
:1018b000701c81000000e00004003a000f000700e7
:1018c0000084eb000000e00008003500781c810077
:1018d0000900e0000500320009004400070007008d
:1018e0000000e00001003d000084eb0008007800eb
:1018f0004f04be00000006000000050080007800d4
:101900000100e00003003a0000002000701c890084
:10191000000005000080eb0002002000828f5000d4
:1019200002003e00711c89000000eb000000060070
:1019300032002000db0037002800fa00889fbe003c
:101940008a9fbe008c9fbe000706780087866900cc
:101950000c003b00030478008704780008f0a10025
:1019600009f0a100840f5000858f5800860f5900a0
:10197000890f5c00030033000cf0a20001003a0064
:101980000cf0a1000c0207006400e1005f003200cf
:10199000780147006408e100610032006c014700f3
:1019a000748557003200be001201be003a04be002a
:1019b0001a05be001e039000be0a90008503530066
:1019c00006003d000004fd008104fd000205fd004d
:1019d0008305fd008703ea00050378000df8a300e6
:1019e0000400320060041400e0841c0060051d0047
:1019f000e0851d006022b8007d0320000d38e10065
:101a00008006eb000b0039004433dd00f300b20028
:101a10008301730039003700848272000d02780060
:101a2000e10664008b85d1000a85d3008984d30048
:101a30000884d3008703e900f7ff3b00080040005b
:101a4000898048000a0149008b81490004003b005d
:101a500060001000e080180060011900e0811900aa
:101a60000358a300090032008d8272008482720044
:101a7000610260008301d1000281d3008180d30024
:101a80000080d3000603e8001b0037000348a300d2
:101a900017003a000600e000170034000603e900d2
:101aa0000d00a300000048008180480002014900a9
:101ab000838149000348a3000f003a000600e000bc
:101ac000090034000603e90000004000818048005e
:101ad000020149008381490001003a000003eb0044
:101ae0000348a300f5ff32006022b800020037006f
:101af00084827200618266008301070003f0a10006
:101b00000cf0a70003f0a000bf01370064014700fc
:101b10006408e10002003a000df8a300b7013a00a2
:101b20003200be001201be00b701370003f0a20070
:101b3000889fbe008a9fbe008c1f78005903070053
:101b4000600333006450e1004f0032006420e10084
:101b50005200320003826c0007003b000905d000f0
:101b60000306d000820f54000c065d00020039000d
:101b70000200320089017800030678008582550052
:101b800004003d000003fd008103fd008502ea0022
:101b90008b854200840f720002003b006000100041
:101ba000e08018006011b8000005eb007a28e10021
:101bb0000a00390006007800c75ddd00f707b200b3
:101bc000878075002d003700828171000a0178003e
:101bd000610560008180d1000080d3008502e900aa
:101be000f9ff3b00060440008784480002003b00e8
:101bf00060041400e0841c000988a3000700320080
:101c00008a81710082817100610164008904d100c0
:101c10000884d3008b05e800170037000978a3007b
:101c200013003a000b00e000130034008b05e900bc
:101c30000804440089844c000a4474000978a30015
:101c40000d003a000b00e000070034008b05e900ae
:101c50000804440089844c0001003a000b00200075
:101c60000978a300f7ff32000001eb000200370003
:101c7000828171000a017800cf0207000cf0a700f2
:101c800001f0a000180337006420e10002003a00d0
:101c9000838f6c00180333000801be000200be00f1
:101ca00011033700889fbe008a9fbe008c9fbe0034
:101cb0000206780001f0a7000cf0a0000004be00ae
:101cc000e30207000800be006420e10007003900bd
:101cd00002003a00f1ff2700f0ff2f000160a00092
:101ce00012022000c24288005100370009f0a10012
:101cf0000800be000200200003f82300680107006e
:101d0000f4ff3c000800be000200200003982300fe
:101d1000610107000800be0030003500020020000d
:101d200003f023005e01070005003c000800be0030
:101d30000801be00680307000005be000e00370062
:101d40000c10a2000000200001f823000801be00d2
:101d500076ff07000200200003f023005e03070067
:101d60000005be00fb0307000200200003002c005a
:101d7000590307000004be000a00be00b2d02800cc
:101d8000130b2c006aff07000a01be005203070074
:101d9000020f2500330b240065ff0700809fbe0063
:101da0000a00be005206220013f02b004a0307006f
:101db000b2662100f3f623005dff07000a01be00b2
:101dc000450307004f01be007e0007000801be006a
:101dd000410307000801be0055ff07000c00a700e3
:101de00007003700b2fd200093fc23000c10a70071
:101df0004fff07000cf0a70001f0a2000c00370015
:101e00000cf0a7000200370001f0a2000400370028
:101e1000b2fd2000930424000c10a600030037003c
:101e2000b2fd200093fc23000c10a70040ff070028
:101e30004f06be004f05be004f04be000000060066
:101e40000081eb00580337008f1fd1005f050700aa
:101e50008f87e9000000e000000006002800fa007b
:101e6000889fbe008a9fbe008c9fbe0003866b00c9
:101e7000d10007006400e100440032006408e10082
:101e80004a0032006100e100460032006108e100d2
:101e900049003200ec0647006000b8003d02be0079
:101ea0003d03be00f48657006011b8003d04be003b
:101eb0003d05be007d0320000b0037000000a000a0
:101ec0008d06e900130032000402420085824a00b8
:101ed00006034b0087834b000000400081804800d0
:101ee00002014900838149000802520089825a0098
:101ef0000a035b008b835b00f0ff3b00080242009b
:101f000089824a000a034b008b834b008d06e9004f
:101f1000edff3a008482720086827200f707b200f9
:101f20008782720001003200150020001e0490001c
:101f30003e0b900006035400e63fb0000368a30088
:101f4000070032000000a7000500a0008301d100b7
:101f50000281d3008180d3000080d3000603e80013
:101f60008301d1000281d3008180d3000080d3009f
:101f70000002eb000482d2006300070003f0a1001e
:101f80000cf0a70003f0a0009f0037006402470098
:101f90006408e100990032003400be003401be0044
:101fa000f6ff37006108e100940032006011b800cc
:101fb0006000b800f1ff370003ff27000200200097
:101fc000fbff3700889fbe008a9fbe008c1f7800f1
:101fd000340207003b02330003866c006450e100ca
:101fe0002e0032006420e100330032006150e10035
:101ff0002f0032006120e10031003200858555005c
:10200000eb07b0000900200008042000050037009d
:102010000804440089844c000a0031000603430090
:1020200087834b000001530081815b00f8ff330080
:102030000203be000800a0000804440089844c008c
:10204000f6ff3900c639dd0083017300010032005c
:10205000130020008904d1000884d3000998a3004c
:10206000050032000800a7000300a0008904d10089
:102070000884d3008b05e8008904d1000884d300cc
:102080000001eb000281d200cb01070001f0a100aa
:102090000cf0a70001f0a000130237006420e1005b
:1020a000150232000801be000200be00f7ff370033
:1020b0006120e100100232006000b800f3ff370039
:1020c0000000200001f82700f0ff3700839f680020
:1020d0000100e00002003d0060001000e0801800f8
:1020e0000300e00002003d0060011100e0811900e2
:1020f000780307004f00e00002003b006000100082
:10210000e0801800000006001800200057002000a2
:10211000080453000d003d000600200097fc2f002e
:102120000740e1001e0034008482720061026000fa
:102130008301d1000281d3008180d3000080d300cd
:102140000804e800f8ff3a0047002000610460003e
:1021500005047400040464000d00320061004000b6
:10216000e080480060014900e081490003b8a50013
:10217000070032000603e8006538e10004003a0079
:102180008301d1000281d3008180d3000080d3007d
:10219000f87f20000830e1000300350008037800d4
:1021a0006000b8006011b8004433dd00f300b200f5
:1021b0008301730000000600680447000294be001b
:1021c0000094be00fc0447008694be008494be00c8
:1021d00009007800c604070008007800c40407005e
:1021e00099007800814f70000b003b000800be0092
:1021f0009f0407004f00b10003003700f3ff2700e2
:10220000f2ff2f006110b9004f06be004f05be005f
:102210004f04be000080fa00000006008103780031
:102220008b0107000001be006000b8000478a30025
:1022300013003a006220e10015003e000d00390055
:102240008301d1000281d3008180d3008301d100ba
:102250000281d3008180d3008301d1000281d300a9
:102260008180d3000538b000c42add00f300b2003d
:102270008381720007f0a70003f0a00000000600b1
:10228000f3ff2700f2ff2f006110b900fbff3700ba
:1022900003ff2700f7ff370014002000bb043700be
:1022a000f4ff2f00b90437001400fa00889fbe0025
:1022b0008a9fbe008c9fbe000004be000205be00c7
:1022c000680047000a90be000890be00880407001e
:1022d0000070a7000bf0a1009e0990000e0990006d
:1022e000fe0090006e0090009e029000344320009b
:1022f000848252000a00320010003c00b4fc2f001f
:102300000428e1001f0034008301d1000281d300c2
:102310008180d3000080d3008502e800faff3a00f4
:102320000b00e000b8ff3b0060001000e0801800e8
:1023300060011900e0811900b3ff3700b4002000ec
:102340000428e10007003d000000400081804800b3
:1023500002014900838149008502e900faff3a0041
:10236000efff3700f3ff2700f2ff2f006110b900e5
:102370000b00e000a4ff3b00030028000200200047
:10238000010037006011b8006000b8009eff370000
:102390000003be002e0107006011b8000470a70002
:1023a00007f0a1006509b1001b00320012003500e2
:1023b000860220000628e10008003500f3ff270010
:1023c000f2ff2f006110b9000700e00018003b0089
:1023d000030028006000b800020005000000400073
:1023e0008180480002014900838149008502e9009b
:1023f000faff3a0008003700f88f420002003c0064
:102400008000eb00000005008100d1000080d300b7
:102410008502e800fcff3a000700e00004003b00f2
:1024200060001000e080180060011900e0811900d0
:10243000000006000001be00050107000470a700af
:1024400003f0a1006509b100160032000d0035004f
:102450006828e10006003500f0ff2f00f1ff27009b
:102460000300e00013003b0001002800000005000d
:1024700000004000818048008502e900fcff3a002e
:1024800008003700f88f420002003c008000eb009b
:10249000000005008100d1000080d3008502e80023
:1024a000fcff3a000300e00002003b006000100067
:1024b000e0801800000006000003be00e4000700f2
:1024c0006011b8000470a70007f0a10007f8a3008e
:1024d00017003a006509b1000d0032000d0035000b
:1024e000860220000628e1000300350003002800d2
:1024f0006000b80002000500000040008180480034
:1025000002014900838149008502e900faff3a008f
:1025100000000600f88f4200050034008100d10061
:102520000080d3008502e800fcff3a0000000600ae
:102530006011b8008000eb00000005000001be0043
:10254000c30007000470a70003f0a10003f8a30074
:1025500013003a006509b10010003200090035008f
:102560006928e10002003500010028000000050094
:1025700000004000818048008502e900fcff3a002d
:1025800000000600f88f4200050035008100d100f0
:102590000080d3008502e800fcff3a00000006003e
:1025a0008000eb0000000500881f7800030478001d
:1025b0000300e00007003d0060001000e08018000c
:1025c00060011900e081190002003b0001f02d00bc
:1025d000030037001a00070008f0a70003f0a0006e
:1025e0004f04780000000600881f7800030478007c
:1025f0000300e00007003d0060001000e0801800cc
:1026000060011900e081190002003b0001f02d007b
:10261000030037003500070008f0a70001f0a00014
:102620004f047800000006004f89de008201780028
:10263000ddff37004f89de0082017800eaff3700b6
:10264000889fbe0000827000040271000482710045
:102650002400320036432000c50020008383cf00d1
:102660000a0039000541b1008283cf00070039001c
:102670000541b1008183cf00040039000541b1005c
:102680008083cf00010039000541b10085c35300ac
:102690006022b800120032000a003b0084827200ff
:1026a000610260008301d1000281d3008180d300e8
:1026b0000080d3000603e8008743e800f7ff3a00f4
:1026c00007003700000040008180480002014900f7
:1026d000838149000603e9008743e900f9ff3a00d6
:1026e00089fe07004f04be0000000600889fbe0060
:1026f0008a9fbe0000827000040271000482710093
:10270000260032000004be000200be006011b800c6
:102710006b092000950220000182cf000a003900d9
:102720000541b1000082cf00070039000541b1002a
:102730000982cf00040039000541b1000882cf00b2
:10274000010039000541b10005425200120032007b
:102750000a003b0082817100610164008100d100a8
:102760000080d3008984d3000884d3008b05e8005f
:102770000442e800f7ff3a0007003700080444006d
:1027800089844c0000004800818048008b05e900e6
:102790000442e900f9ff3a00070007004f05be00b8
:1027a0004f04be00000006006011b800a4ff37000f
:1027b0006011b800cdff3700810020006180550016
:1027c0000b003d000b00200061fe2f000100e10026
:1027d0001d00340082817100610164008904d10010
:1027e0000884d3000000e800faff3a0071002000de
:1027f0006100640003007000020060000900320004
:1028000061044400e0844c000988a5000500320002
:102810008b05e8006808e10002003a008904d10055
:102820000884d300f20f20000258e10005003d00ab
:10283000c75ddd00f907b2008980750008007800e7
:10284000000006000bf827008b0078000000050050
:10285000c70ade00f107b200f50fb200080032002f
:10286000e1cf4200020032000170a0002400050008
:10287000810f7000010032000408050044000500cb
:10288000810f700002003a00140005008502e90083
:102890000000400081c04800fcff3b000170a00028
:1028a000240005000004be00e9ff07000003be008d
:1028b0000405be000200be00e5ff0700844f75005e
:1028c000000006000200be006450e1000500360072
:1028d0006420e100020036000968a30001003a000c
:1028e0000800be000160a0004f0678004f05be0042
:1028f0004f04be0000000600f0ff2f00f1ff27008c
:10290000f9ff37002800fa00889fbe008a9fbe00aa
:102910008c9fbe0003866b0027fe07000028a300e3
:1029200064003a000128a30067003a000008a300f1
:1029300062003a000108a30065003a001e00900002
:10294000be08900081064000ed3fb100f4805700c2
:10295000ee019000111ab8008e099000311bb800ea
:102960009e099000311cb800511db800f485570035
:1029700046000700fe0190003a0007008b85e80042
:102980003e0007008e09900040000700ee01900015
:10299000340007008b85e800380007008e0990009e
:1029a000400007009e0990001b18b80089044000f1
:1029b0000a854800fe019000340007008b85e8007e
:1029c00038000700ee019000300007008e099000eb
:1029d0001b18b800890440000a8548000a98a30023
:1029e00008003a000402420085824a0006034b00b8
:1029f00087834b0008044c0089844c000a054d0075
:102a00008d06e90084827200850273004c3add0075
:102a1000850272000100320015002000443ade00f9
:102a20001400b2004538de00cb45dd000b0070001d
:102a3000c540de00cb4ddd008b8070004549de00d7
:102a4000cb55dd000b017100c551de000d03780090
:102a5000adfd070003f0a1000cf0a70003f0a000fb
:102a6000e9fd37001b18b8008502400006834800c6
:102a7000e0834b0060044c00070037001b18b800cf
:102a80000603400087834800faff37001b18b80090
:102a90008703400008844800e0844c0060054d0036
:102aa000000006001b18b800080440008984480094
:102ab000faff37000108a300d0fd3a005800be001d
:102ac0005801be00e3ff37000008a300cbfd3a0029
:102ad00009047800f9ff3700889fbe008a9fbe0076
:102ae0008c1f78006fff070076ff330003866c00b1
:102af0006450e100240032006420e100270032002d
:102b00006150e100220032006120e100210032002a
:102b10008b854200eb07b1000134b800003ab800e1
:102b20000804420089844a00013ab8000030b80025
:102b30008880400009014a00040033000000400082
:102b400081804800020149008b05e900c909dd00c8
:102b5000830170000100320013002000c814de0061
:102b60004814dd004709de001200b200c808de008c
:102b70000884700010ff070001f0a1000cf0a7000e
:102b800001f0a00058ff37006120e1005aff320039
:102b90000801be000200be00f7ff37006150e100ef
:102ba000fcff3a0054ff3700889fbe008a9fbe009a
:102bb0008c9fbe00820578000004be0024ff070041
:102bc0000800be006420e1000700390002003a005e
:102bd000f1ff2700f0ff2f000160a000120220008b
:102be000c2428800550037006120e10003003a002e
:102bf0000b00a70001f823005000370001f0a100ee
:102c00000200210093642400a3fd07000800be0019
:102c100004003500b2fd2000930c2400760207006a
:102c20000004be000005eb000b00a6004f0dde0007
:102c300001f0a1000004be0032982f0023ea230017
:102c4000a5ff07000001eb0003f023000b00a70025
:102c500003f82300b6fb0700f6fd07000000a700fd
:102c60000a00a20073fe07000b00e0000300320020
:102c70000200200003f02300acfb070001f0a200db
:102c80000006be00020020009304240092ff07000b
:102c90000801be00a6fb0700809fbe000c00be001e
:102ca00022a22a00d3a723008bff07004f01be00fa
:102cb0009ffb07000004be0001f0a10002002000fd
:102cc0000398230074fd07000800be0019003500ba
:102cd0000001be0080ff07000006be00b2c529004b
:102ce000e36223007cff070022222b00f3942b00d9
:102cf0008ffb07000c01be0077ff0700e27328007e
:102d000083c023008afb07000c01be0072ff07008e
:102d100042aa2a00a3e22b0085fb07000c01be009b
:102d20006dff07000801be006bff07000801be0031
:102d30007ffb07000a00a70001f0a2004f06be00bb
:102d40004f05be004f04be00000006000001eb006e
:102d500095ff3700889fbe008a9fbe008c1f7800b9
:102d60000004be00bafe07000478a30026003a0063
:102d70006120e1002500320009f8a30025003a0097
:102d80006420e10021003200f507b1000508a3002e
:102d90000200320000004000818048006044b8001a
:102da0000310200002002000000040008180480045
:102db0000805440089854c000a0541008b854900bf
:102dc0000a0550008b855800030033000a00be003e
:102dd00002047400838474008301d1000281d30053
:102de000830f7100f0ff3a008904d1000884d300fa
:102df0006001490082017800c1adde00fb07b00030
:102e00006dfe0700b8fe37000960a0000800be0094
:102e1000b5fe370012022000c2428800f0ff2f00ea
:102e2000f1ff2700b0fe37001400fa00889fbe00b3
:102e30008a9fbe008c9fbe000005be000206be0039
:102e4000680047000c90be000a90be00a801070071
:102e50006400e1001a00320016003e006100e1004b
:102e60001a0032006e049000fe0490000e0b9000d9
:102e70009e0b90006011b8009e0590000b38b100c9
:102e8000d501200082817100610164008703d100b7
:102e90000683d3008984d3000884d3008502e90027
:102ea000f8ff3a0044fe07000df0a70001f0a00073
:102eb000d5fc3700f1ff2700f0ff2f00d2fc3700d0
:102ec00001f8270000002000f7ff37006000b8007d
:102ed000f5ff37006022b800060220000000d00095
:102ee0008180d2000482d2008582d2000000a0003e
:102ef0000202520083825a000300310002024200a3
:102f000083824a000000a1000603e900f3ff3a00b3
:102f100000000600efff07000400be0000000600ee
:102f2000889fbe008a9fbe0030044200b0844a00e1
:102f300030054b0090854b006000b1000898be0042
:102f40000a90be000440e10005c8e10006d0e1009f
:102f500007d8e10002003100680040001008e800d6
:102f60004f05be004f04be0000000600889fbe0053
:102f70008a9fbe003004be002005be000418540025
:102f800005985c0006185d0007985d0011002000a0
:102f90000440e10005c8e10006d0e10007d8e100e7
:102fa000010039008000eb00108810004f05be00c2
:102fb0004f04be00000006001200fa00889fbe0009
:102fc0008a9fbe008c9fbe00e0b79f00f1b79f00b4
:102fd00082bf9f0093bf9f000605be000404be0091
:102fe0000000eb00d0b79f00c0b79f00b0b79f00b4
:102ff000a0b79f0090b79f000006eb005fb197005d
:10300000cfb09700820141003fb097000200e0007e
:1030100004003d00370007007e805700c0ff070016
:1030200003003700330007007e805700cfff070002
:10303000dfb697000d00e0000c0035006fb297007e
:10304000ffb297000fbb97009fbb970010002000b6
:10305000010020006011b80000027200818272003d
:1030600002037300838373001b0007000c06e80053
:1030700001042000810f5600e0ff3a000d00e0003f
:1030800004003d000802be000a03be007e80570017
:10309000a3ff07005fa897000000e00005003a00ca
:1030a0001fb29700afb297003fb39700cfb397001e
:1030b000090007006fb09700ffb097000fb99700a5
:1030c0009fb997004f06be004f05be004f04be00db
:1030d0000080fa0000000600010007000000060062
:1030e000a4b79f00b5b79f00c6b79f00d7b79f0092
:1030f000000006004f09de0082817100b3b79f0017
:103100004f01de008180400082807000a1b79f00e7
:103110008fb097004f09de000000400002007000f1
:1031200090b79f007fa897004f01de00818040008c
:103130008280700081b79f000d0007004f3ade00cb
:103140000000400004007000f0af9f00080007007e
:103150000402420085824a0006034b0087834b002d
:10316000dfff07000802be000a03be0000000600e1
:103170002fb29700bfb297004fb39700dfb397000d
:1031800000000600881f780018002000881f7800c3
:1031900089ff07008f87e9004f04780000000600d0
:1031a000801feb0084ff07008f87e9000000060006
:1031b000889fbe008a9fbe00e00f5000e08f58003d
:1031c000e00f5900e08f59000c003d006044b8004a
:1031d0006055b8000000540081805c0002015d0071
:1031e00083815d00180020001500070008003d00e5
:1031f000180007000004eb00050037000004eb0096
:103200000f00070002003d00120007001800200018
:10321000dcff07000800e000060032006022b80072
:103220006033b8000000520081805a0002015b0048
:1032300083815b004f05be004f04be000000060006
:10324000e00f5200e08f5a00e00f5b00e08f5b0060
:10325000000006006044b8006055b8000402540045
:1032600085825c0006035d0087835d000000060028
:10327000889fbe008a9fbe008c1f7800e00f500020
:10328000e08f5800e00f5900e08f59000d003d001d
:103290006044b8006055b8000000540081805c00b4
:1032a00002015d0083815d001c0020000820e10018
:1032b00009a8e1000ab0e1000bb8e1000d003d00f3
:1032c000080037000006eb00e00f5200e08f5a00c4
:1032d000e00f5b00e08f5b0006003d006044b8003b
:1032e0006055b8000402540085825c0006035d004e
:1032f00087835d00aaff07000c00e0000600320093
:103300006022b8006033b8000000520081805a008b
:1033100002015b0083815b004f0678004f05be0011
:103320004f04be0000000600889fbe008a9fbe00ba
:103330008c1f78000006eb00e00f5000e08f580073
:10334000e00f5900e08f590007003d006044b800cd
:103350006055b8000000540081805c0002015d00ef
:1033600083815d001c002000e00f5200e08f5a00b6
:10337000e00f5b00e08f5b0007003d006044b80099
:103380006055b8000402540085825c0006035d00ad
:1033900087835d000c00a200e80007000c00e0003d
:1033a000060032006022b8006033b800000052000e
:1033b00081805a0002015b0083815b004f06780028
:1033c0004f05be004f04be0000000600889fbe00ef
:1033d0008a9fbe008c9fbe000404be000605be008e
:1033e000809fbe00829fbe002f0007000406780069
:1033f0000800be000a01be002b000700840678000a
:103400004f03be004f02be008d4f76007fb0970085
:1034100013003300f0ff2f008b8f6b0006003b0082
:103420000d0666000c00a7000a00370007f0a60092
:10343000100020000a003700880f5200898f5a00c0
:103440008a0f5b008b8f5b000300390010002000a7
:1034500001003e000000200007f0a7000000ea0085
:103460004f06be004f05be004f04be000000060020
:10347000e48240001078a30007003200640240009c
:103480001178a3003400be001401be000400320015
:103490000330a700000006003500be001501be0085
:1034a0000330a0000000060005ff27000582610030
:1034b000070032000428e10001003200240005006a
:1034c0000600070001003a0044000500040805005a
:1034d00002000700f9ff3a00140005006f82610046
:1034e00081027000850271008502720000000600f2
:1034f000800078005002be005003be004439de0058
:10350000f700b200f37f20000301610009003200e0
:103510000218e10016003a00850172008301730071
:10352000838173000008200015003a00400020004d
:1035300013003700850172008301730083817300db
:1035400005003a0004a8be0006a8be001000200036
:103550000b0037000201e9000402420085824a00a4
:1035600006034b0087834b000748a300f9ff320096
:103570000740a00004a8be0006a8be00200020004e
:10358000800098009200980000000600889fbe000e
:103590008a9fbe00841f7800c2fc07004f0078009d
:1035a00011003300f0ff2f00838f6c0006003b00fa
:1035b000040565000a00a7000800370009f0a6000e
:1035c0001000200008003700820f5400838f5c0039
:1035d000030039001000200001003e000000200020
:1035e00009f0a7000000ea004f05be004f04be002e
:1035f0000000e0000000060004002000000037008a
:10360000889fbe008a9fbe008c1f78004f26dd0079
:10361000a4fc0700abfc33006120e1004300320052
:103620006250e10041003e003e0039006420e100ac
:103630003c003200058255000f003b000402e80008
:1036400038003a00800f5300818f5b003500340052
:103650000800be0003f0a10001f0a60003f0a000e6
:103660000cf0a70032f907009ffc37000603430067
:1036700087834b000c4646000005530081855b00a4
:10368000020033000a03be000c00a0000402e9009f
:10369000f6ff3b00850578000602430087824b0059
:1036a00004003a006000b80009f0a70001f0a00093
:1036b0008dfc37000002520081825a000704e000ae
:1036c000040033000603430087834b008b05e900a9
:1036d000faff3700090578000604be000203be00a9
:1036e0006011b80034fc0700e00f5200e08f5a0070
:1036f0000700350002003c000c08a3000400320063
:103700000601be0003f0a0000cf0a70008f90700b6
:103710000a85680001f0a1000af0a70001f0a000ee
:1037200071fc37000800be006ffc3700100220005b
:103730000cf0a600c04288006ffc3700889fbe00d6
:103740008a9fbe008c9fbe000404b8000506b80026
:103750008904460060854e000606b8000a0546004a
:10376000e0854e000706b8008b054600040eb80041
:10377000890446000a854e00e0854d00050eb8001c
:103780000a0546008b854e00060eb8008b054600e4
:103790000416b8000a0546008b854e000516b800d1
:1037a0008b054600041eb8008b0546000800be00cd
:1037b0000a01be004f06be004f05be004f04be000a
:1037c000000006008000eb001001be000000eb00ce
:1037d000a50037008001780002003700b159780059
:1037e0000201e9000200e000fcff3a0000000600d0
:1037f000889fbe00c00981000000e0000100320087
:1038000000000100d00981000000e000010032004a
:1038100000000100601322001004e00022003a00c2
:10382000001c8100111c810088002000d26026004d
:10383000930120000b080700f2352f00e3c6230098
:1038400000004100818049000804e900f7ff3a00c8
:10385000c81322000908200088844400d260260092
:1038600093012000ff070700f2352f00e3c6230075
:10387000000041008180490000acbe00890f540067
:10388000f6ff3a00001c8900111c8900e00d810040
:10389000f10d8100e0098900f109890011c0b30030
:1038a0006013220001487800d260260093012000b6
:1038b000001c8100111c8100ea070700f2352f006f
:1038c000e3c623000002410081824900041c8900f4
:1038d000151c8900c0132200100078007f016000d1
:1038e0004211dd0000142200020140001200be005f
:1038f000e0098900f10989000489be00010078000f
:1039000000f0a1004f04be0000000600889fbe002a
:1039100000047800c00981000000e00001003200ce
:1039200000000100601322000048eb00d009810074
:103930000000e00001003200000001008004eb0004
:10394000081c8900191c89004f04be0000000600f5
:10395000020037000304e000060032000001780096
:1039600002007800b041780081cf5100f9ff3a00a1
:10397000010037000001eb000200780000000600a3
:10398000020037000204e0000b00320081017800e1
:103990000002780030417800b14f5100f9ff320049
:1039a0001000200014427800934f520003003100b1
:1039b0000080eb00000006000000eb0000000600a5
:1039c0008001780002003700845978000201e90084
:1039d0000200e00006003200314278000404e000fa
:1039e000f9ff3a00020037008059eb000201e900bc
:1039f0000200e000fcff3a000000060080027800b0
:103a0000010378000500e000030034000501e9002f
:103a10004291de00090037000001eb00e38f420015
:103a200006003d00e4811200420020001100090060
:103a30008201d800000178000201e8006382620080
:103a4000432b220004003a00c32c22000500e000b2
:103a500001003a00432b220086004300818141008f
:103a60001300410000000600ea874700889fbe005f
:103a70008a9fbe008c9fbe008e1f780000047800d5
:103a80000ae82700ab3a28000205450083854d006f
:103a9000dab79f00ebb79f000800e00001003a0092
:103aa00088362200010c980002182500130020001f
:103ab0000a00be0007fd07000006be0061004000ce
:103ac000e080480072002000030020005607070035
:103ad00060049800d2162000030020000c00be00f5
:103ae0007af907000001be000007eb008e045100c8
:103af0008000eb0009007800f2b79f0083bf9f00b1
:103b0000beff070000027800d016200000c8b900f0
:103b1000cfa2de000000420081804a000e07e800cc
:103b20007fb197008fb99700800f5600818f5e009c
:103b3000eeff35000006560081865e0059049800ad
:103b40007c04980063806400412b220004003a004a
:103b5000c12c22000900e00001003a00412b2200a4
:103b6000f6804000c00020000000e900010178005c
:103b700021027800cfa2de00840f5600858f5e0000
:103b8000f9ff3500400498000c06e80012065600c4
:103b90003c04980002182500130020000a00be0013
:103ba000dcfc07000005be0002e12000030020004d
:103bb000c8fc07002004980002e120000300200058
:103bc0000a00be00d3fc07000005be00c2032000af
:103bd00003002000bffc070010049800c20320006f
:103be000030020000a00be00cafc0700000c780099
:103bf000080890000000e00005003d000800780083
:103c000020000700000c98000000e00007003c00c6
:103c1000080078004f0778004f06be004f05be0031
:103c20004f04be00af00b100000006000ae1200012
:103c30000b0020005fb09700efb097000005450033
:103c400081854d0098ff370000e4210045013700d1
:103c5000881f7800e83722001804e00003003a00cb
:103c6000f9ff070020c0b300004c780010002000ce
:103c70004f04780000000600e01b8100aa00370016
:103c8000fdff3700f6874700889fbe008a9fbe0071
:103c90008c9fbe008e1f780000047800ecff0700a8
:103ca000601a81000000e000010032000000010005
:103cb000f0eb8000d11b8100808f50001c0032008f
:103cc0001004e0000f003a0000ec80001004e00057
:103cd00002003a003c02070000ec8800e2fd2f00e1
:103ce0000f0141003100200000ec8000bc01070002
:103cf000f0eb88001004e00002003200e1d7210060
:103d00008008e900f0eb80002f01070080047800b4
:103d10000085eb000900e0006e003200e01b81002e
:103d200081000700e91b8900f0eb8000d01b8900af
:103d30008000eb005800900030ff070080047800fe
:103d4000780090007800b90028019000000141003f
:103d500082b79f00d8009000d01620000088b900dc
:103d600061004000e08048004fc9de000080440050
:103d7000810049007200200003002000aa0607000d
:103d8000ee024000e41b81008006eb000005eb0022
:103d900009017800880178004700370064844500f5
:103da0008004eb0053009000ec407c008180fb001d
:103db000808f50003f003c00e3804500ecc078005d
:103dc0008180fb00b2b79f00e3b79f00d4b79f008c
:103dd000c5b79f0096b79f00a7b79f0007ff0700d2
:103de0008b80e800ecc078008180fb003fb1970039
:103df0008280500080804000f1b79f006c467f00b9
:103e00008cf79f00efb197005fb29700cfb2970099
:103e10001fb397000c04e000130032000c87fb0076
:103e20000e875200010747007c00200011000900a6
:103e30000c07d800010778000006eb000e00e00038
:103e400001003200670617007fb097000c004000a9
:103e5000f0b79f008ff09700e7cf500002003e00c0
:103e600067005000f0b79f007fb697007860b900f8
:103e70008b03e800e6c37b008783fb0000804300e0
:103e80008fb09700808f500012003500e6407c0014
:103e9000e985450066c07d0080cf500002003a00f1
:103ea0000a00e000020032000005eb0001003700cc
:103eb0001a0020008d06e800656bb80084057800c4
:103ec000060678000407780066407a00e14f40005b
:103ed000b2ff3a000a0078004f0778004f06be0094
:103ee0004f05be004f04be006f01b1000000060088
:103ef000601a81000000e0000100320000000100b3
:103f000080d52100000006008001780024d821001f
:103f100042d52100a1012000e0342200b4010700b5
:103f2000e0342200000006000000e0002f00320014
:103f3000c0017800e38f51002c0036000308a30075
:103f40002a003a00311c81000100e000020032002a
:103f5000810f50000400310011009800301c8900ce
:103f60001600370082007800110190000200e00086
:103f700002003200800f5100faff39001102780070
:103f800084824000850f500018003900808f520055
:103f900003003a0083084200010078000700370060
:103fa0000200e0000300320083014000830f510053
:103fb0000e003900120098009000980090009000c8
:103fc0000100e0000900320010014000828f500023
:103fd00006003a00423822000009eb001001780088
:103fe00011084100910090001100980000000600a7
:103ff000889fbe0000047800211c81000100e000c1
:1040000002003200010078000d003700311c8100f1
:104010006038220004003700910f5400250036005c
:104020000180e800910090000100e000faff3a00f2
:1040300010003700920f54001e0036000280e80086
:10404000100178000200e000faff3a001101780048
:10405000311c81006038220004003700910f5400a9
:10406000140036000180e80091009000828f50001b
:10407000faff3a00691c8100888f5400010031006a
:104080008804780009007800cb0007000000e000f9
:1040900004003a00888f5400050032008904d100e2
:1040a000f5ff3700091878009fff0700d2ff37009f
:1040b0000000eb004f04be0000000600881f7800df
:1040c000630440000800a1008000eb00800f540052
:1040d00021003600e30f540001003e00480020009c
:1040e00008007800c2ff07008000eb000000e0003d
:1040f000190032009000780091017800648151002d
:10410000880f51000300310011019000020878006f
:1041100007003700088140000208780091019000f4
:104120001301980010017800110914008808780024
:10413000100178000000eb000200e00004003200f3
:10414000920190000300e000010032000280e800cc
:10415000201c89008180e800010078004f0478006d
:1041600000000600010020000100e000080032000d
:10417000010080000100e000050032008100e9003c
:1041800001008800818040000200800000b17800ba
:1041900000000600000178000000eb00020037007c
:1041a0006a02b900048041008100e9000500330083
:1041b000b201fb000303b100e98f5100f8ff3600a4
:1041c0000080eb0000000600e4874700889fbe00e7
:1041d0008a9fbe008c9fbe008e1f7800904678009c
:1041e0000006eb000d04e0006c0032008004e800e3
:1041f0000900780028002000020037000000e800d5
:104200000804e8008d00fb00d1fd07000000e0007d
:10421000faff3a006540b900a8ff070000057800e2
:104220000a0678000a00e0005c0032000a04780008
:104230008005eb0080c2b300994f10000b003a00dc
:104240000900e80041002000d2ff070041892f004b
:10425000810540004e003300d940900090c2b30069
:1042600080cf50004a003a00e68444008bf79f005c
:104270004b4498002100200009007800c5ff07008a
:104280000040e90090f79f00304498008984e800de
:104290002100200009007800beff07000047e90068
:1042a0002e4498008984e8001900fb000003b10047
:1042b000e90f500006003e002100200009007800b0
:1042c000b4ff0700104498008984e800020037001a
:1042d0000040eb00104498001ff09700eb4f500097
:1042e0002b003e0030c6b300804f570028003e0030
:1042f0009840900080cf500025003e001940780083
:10430000b1c2b300814f50000500320081c0e80007
:10431000814f500002003200004ceb000f003700cc
:104320009940900000cdb30000c04000e64f50001f
:1043300017003e0002c3b30082cf500001003a00d4
:1043400070c0b300004c7800b1c2b30099cf100028
:1043500001003a00674c40008984e8001940780069
:104360000004e00005003a006504440000cceb00c6
:104370000ff0970040449800080037008d4f500020
:1043800003003a00650444008904e800a9ff3700ef
:104390000a007800e4fe07000006eb000c0078003d
:1043a0004f0778004f06be004f05be004f04be0009
:1043b0004f00b10000000600800078000000eb0014
:1043c0000100e000050034000100780036f5070028
:1043d000e10f400001003a000000eb000000060081
:1043e000889fbe008a9fbe000004be0002057800c0
:1043f000984578000b04e000010032000804e80052
:104400008b00fb000800780051fd07000000e00071
:1044100003003a000800780001040700000044008f
:104420000900e00002003c00080d500008003700c1
:104430001004e00003003a00000deb0000047800d7
:10444000030037008904e9000004e800ecff3700ae
:10445000080078004f05be004f04be0000000600b3
:10446000889fbe008a9fbe008c9fbe00000478001b
:10447000cc332200640546008a057800190020002c
:10448000984678000d00fb00c20007000000e00025
:10449000360032000d6e7800b86d78008904e800af
:1044a000e48f5400f6ff3a0018407800d1c2b30000
:1044b000814f50000300320081c0e900814f50005d
:1044c00002003a000804e8000100370001407800cb
:1044d0005134220080487800984078000101fb00a8
:1044e0000203b1000000eb00e90f510020003e0084
:1044f000603422000148780088047800d9407800b0
:104500000101fb000203b1000000eb00e90f5100c4
:1045100017003e0070342200014878005900fb006b
:104520009c0007000000e0000b0032000884e80057
:104530003b342200b84478000900fb0095000700d6
:104540000000e00009003200096d7800880478005e
:104550008b0f5500f7ff3a000000eb001904e00054
:1045600003003a00c0332200010037000000eb00d6
:104570004f06be004f05be004f04be0000000600ff
:10458000e0322200dcf40700501c89000000e0004b
:1045900007003a0070332200d7f40700501c89004e
:1045a0000000e00002003200adff0700501c89004f
:1045b000501c81000000e00002003a00a0332200fd
:1045c000501c890000000600881f780088382200ef
:1045d0001804e00003003a00e9ff070020c0b30020
:1045e000004c7800501c81004f0478000000060049
:1045f0008f02b000889fbe008a9fbe008c9fbe00c5
:104600008e1f780000077800010678000204780009
:1046100083bf9f00f4b79f00080078008003070065
:10462000800478008e0578000005eb004800370014
:104630000a05e9000a004500c1fc2f008f804000f8
:104640000080400010049000c004900018407800e2
:104650008086fb008d06ea00cf6ede000d0444006c
:104660008d84540051c2b300814f500002003a00c3
:104670000900e00005003a008d0f56003e003900a9
:104680008d0054000d0178001f0037009846780017
:1046900050c4b30080cf5600030032006a4040008f
:1046a00080cf560002003a000804e80001003700fd
:1046b0008046eb00a5fd2f008f824200c4fc2f0036
:1046c0000f024200984178000d417800ffb097003a
:1046d0000fb89700480107000d04e0000100320008
:1046e0008904e9000804e8008904e900efa69700be
:1046f0000d00e000090034008d0f56001e00390047
:104700000d017800800078000b00780031fc070074
:104710008d8545000d0656000d0037000900e000ac
:1047200009003200e20f550007003e008a004500f4
:10473000c2fc2f000f014100810041009800980049
:10474000c90098000a05e8008d04ea00000478001a
:104750000900e000bdff3a000a00e000b4ff3a00a3
:104760000000eb000c00e00004003200804deb0084
:104770000e805500010037000000eb004f07780065
:104780004f06be004f05be004f04be008f02b100b1
:10479000000006001004b100070035009001b100d0
:1047a000040034007000b100030035009001b10036
:1047b00001003c0010000500000005008080500052
:1047c000e7804000670241007300200011000900eb
:1047d0008300d80001005200110009000300d80036
:1047e000000006000200fa00889fbe008a9fbe00fb
:1047f0008004780081057800a2002000ea8057003c
:104800000b0078000c0307003fbd97002800200034
:104810008a8f5500330032009a457800f2c2b30007
:1048200082cf55002f003a00d9019000c2762000b7
:1048300002814100cf91de00820f5000838f58002b
:1048400023003a000a05e800a2002000ea80570091
:104850000a007800f80207000001be00bfb8970008
:10486000810f55001f00320091cf15001d003a0046
:10487000490290000402e800cfa2de00840f51003c
:10488000858f59000500320018002000820f520069
:10489000838f5a0013003d00110037000100e8002b
:1048a000a2002000ea805700e30207003fb997000a
:1048b000820f55000b00320039019000cf91de00cd
:1048c0000004eb00820f5000838f58000500320077
:1048d00018002000800f5100818f590001003d0019
:1048e0000084eb00080078004f05be004f04be00b6
:1048f0000080fa000000060000000500889fbe004e
:104900008a1f78008004780001047800080178008c
:104910008900780010002000a8ff0700000578003b
:10492000f5ff070000027800840154003917b00039
:104930000884540072002000110009000204d8000d
:1049400001047800d1162000888040008480400057
:10495000110009008200d800b0162000808f51009d
:1049600003003400e28f500003003a000f003700cc
:10497000808f510003003a00e38f500004003a009a
:104980000a003700a0162000808f510002003a0074
:10499000e48f5000050032000884e900e20f540063
:1049a00003003e000a05e800010037000085eb0027
:1049b0000a0078004f0578004f04be000000060092
:1049c000881f7800000478000100780082007800d9
:1049d000caff07000000e00002003a000804e900f6
:1049e000030037000000e00001003c000804e8007c
:1049f000080078004f04780000000600889fbe0081
:104a000080047800010478008800780009007800ac
:104a1000baff07000000e00009003a00b6ff0700f7
:104a2000d11620000000e000010032008100e80003
:104a3000e784440008805400b0ff070003003700fb
:104a40000000e00001003c00100020004f04be0008
:104a500000000600889fbe008a9fbe008004780088
:104a60000204780003057800810578000b00e0005f
:104a700001003d008005eb00f0c4b300804f520000
:104a800006003a000a0178008b00780015007800d3
:104a900053fe07001a00e00012003c00080d7800e9
:104aa00088844400804ceb000001eb0008003700d4
:104ab000a3002000110009008305d80006c3b3003d
:104ac00086c140000203ea0003737a008005780083
:104ad000614ab800020052000201e800820054005e
:104ae000f3ff3b004f05be004f04be000000060070
:104af0000200fa00889fbe008a9fbe008c1f7800cb
:104b000000057800010678008004eb002c003700d7
:104b10008805e8006c815700110020000b00780028
:104b20002ffe0700800078000a0078002dff0700a4
:104b300098407800d2c2b30082cf500002003a0001
:104b40000000e80003003700b2c2b30082cf50007b
:104b50001a003a00e10f500018003e006c81570027
:104b6000210020000b0078001dfe07009040780017
:104b700098cf500004003a0010419000a1c2b30049
:104b8000814f510016003200800078000a00780042
:104b900014ff070098407800d2c2b30082cf5000c3
:104ba00004003200b2c2b30082cf500003003a00ca
:104bb0000000e800e10f5000090036008904e80019
:104bc0006c815700890078001c00780004fe070003
:104bd000000478001804e000cdff3a00482e2200bf
:104be000080078004f0678004f05be004f04be0055
:104bf0000080fa0000000600ec874700889fbe0096
:104c00008a9fbe008c9fbe008e1f78000005780032
:104c10008104780082457800040478000506780055
:104c20000300fb00cf80de005002b1000180b10024
:104c300052052000820f5000e08f5800eb013e002b
:104c400000600100e5013700e8013700e7013700a7
:104c5000e6013700e5013700e4013700e3013700e2
:104c6000e2013700e1013700e0013700df013700e2
:104c7000de013700dd013700dc013700db013700e2
:104c8000da013700d9013700d8013700d7013700e2
:104c9000d6013700d5013700d4013700d3013700e2
:104ca000d2013700d1013700d0013700cf013700e2
:104cb000ce0137003e003700450037005300370073
:104cc0006d003700c90137007e0037008c003700c7
:104cd000960037009c003700c4013700c30137003d
:104ce000c2013700ae003700c0013700bf013700f6
:104cf000be013700bd013700c5003700c8003700ce
:104d0000d2003700df003700e2003700f200370042
:104d1000ff0037005d013700a4013700b301370001
:104d2000b2013700b1013700b0013700af013700e1
:104d3000ae01370019003700770037002a0037002e
:104d40004600370050003700a801370061003700e7
:104d500071003700a501370081003700a30137003b
:104d6000a201370086003700940037009f0137000a
:104d7000960037009d0137009c0037009b013700eb
:104d8000ae003700b500370098013700cb00370080
:104d9000d6003700e900370060013700ea009000d4
:104da000818040000801780029009000050037004c
:104db000ea009000818040008100e800080178004e
:104dc0003900900086fd0700800678008d013700cd
:104dd000ca009000818040008100e800080178004e
:104de00069009000f7ff370050c4b30080cf550032
:104df00002003a00590890000100370009089000ad
:104e0000080178008000eb00c900370050c4b300ef
:104e100080cf55000b003a0021022000898040001d
:104e20000a00780032ff07000000e800080178005f
:104e3000310020006afd0700800678001d04e000b4
:104e400070013a00da0090004206200011000900cb
:104e50008200d800f30040004b00370045022000dc
:104e6000898242000b4278008801780022002000ed
:104e7000ba0090001e01370080ff2f00000c780060
:104e80007d2e22005f01370045022000898242000a
:104e90000b4278008801780022002000ba009000c0
:104ea0000c007800ebfe07008006780000c3b3001a
:104eb0009c4f100053013a0070405000004e7800a3
:104ec0005001370080ff2f00000c78000d2f2200ca
:104ed0004c0137007a019000ea0090005a009000df
:104ee000b7fe070042062000110009000200d800aa
:104ef0000100e00024003d008280400022003700d5
:104f00007a019000ea0090005a009000acfe070081
:104f1000c1762000f0003700ca0090008180400078
:104f20000801780059009000a6ff370045022000d4
:104f3000898242000b42780088017800220020001c
:104f4000aa009000ea003700aa009000eb80400021
:104f5000c2002000110009008200d80009003700bb
:104f6000fa0090008100e80045022000898242009a
:104f70000b4278008801780032002000dc00370006
:104f8000ca0090008100e8004502200089824200aa
:104f90000b4278008801780022002000d4003700fe
:104fa00045022000898242000b4278008801780087
:104fb000220020009a009000cd0037001000200051
:104fc000000c78009d2f22000e01370011002000f8
:104fd0002a009000eb0f500001003c008000eb0025
:104fe000080178001900780076ff370050c4b3003c
:104ff00080cf550002003a000910900001003700f0
:10500000390890000801780031002000480037007e
:10501000b0ff2f00000c7800bd2f2200f9003700f0
:1050200045022000898242000b4278008801780006
:10503000220020009a007800ad0037001000200008
:10504000000c78001d302200ee00370080ff2f009a
:10505000000c78003d302200ea003700ea009000a2
:105060000100e00001003a0071002000450220002c
:10507000898242000b4278008801780012002000eb
:105080009b0037007a019000ea0090000000eb00de
:1050900014003700fa0090006a00900057fe0700e5
:1050a00045022000898242000b4278008801780086
:1050b00022002000800078008d003700450220008b
:1050c000898242000b42780088017800120020009b
:1050d000ea009000860037007a019000ea00900014
:1050e00010002000b5fd0700edff370050c4b300ed
:1050f00080cf550002003a00690890000100370097
:1051000019089000080178001100200008003700fd
:1051100050c4b30080cf550002003a0079089000d7
:1051200001003700290890000801780021002000c4
:10513000abfc070080067800760037005a07900025
:1051400042062000110009000207d800010778007c
:105150000e00e00001003d00020747002d00200086
:1051600050c4b30080cf550041003a002102200016
:10517000898040000a0078005dfe07000002780088
:105180008d0142001304e000390032005a03900000
:10519000c076200000034300cfb3de000405e80022
:1051a00008017800110020000a007800e3b79f0092
:1051b000d4b79f00f6b79f0087bf9f0088fc070009
:1051c000a20020008000eb009b0007007fb3970047
:1051d0008fbb97000003530081835b00d0c2b300f4
:1051e0005fb29700efb19700944f100002003a00b1
:1051f00060031300e0831b00a2002000f88057002a
:1052000003007800e3b79f00f6b79f0087bf9f00b9
:10521000890007000002be00cfb097002d002000db
:10522000efb197007fb397008fbb9700818f51003c
:105230000f003200914078009acf50000c003a00e5
:105240000400430085804b00000778001d0020000b
:10525000010037008d06e800a200200003002000b6
:105260009af30700e00f5000e08f5800f9ff3c0070
:1052700045022000898242000b42780088017800b4
:105280000d0178008e0078001900370050c4b3007b
:1052900080cf55000e003a00210220008980400096
:1052a0000a00780012fe07000000e80008017800fc
:1052b000410020004afc070080067800b0c3b3001c
:1052c0009d4f1000020032001800e0000b003a0071
:1052d000da009000c0762000808040004502200067
:1052e000898242000b427800880178004200200049
:1052f0000c007800d7fd0700b3fe3700b103200093
:105300000d00780092f907000000e0000100320073
:105310000d0c5000180cea003a00370049109000bc
:105320001004e00001003a00a7fc07000801780023
:10533000210020002afc0700800678001800e00009
:10534000300034000a0890000000e0002d00340016
:10535000a20020008000eb000d007800360007005e
:10536000410620008080400003003300b0c2b3003b
:10537000004e780003003700d0c2b300004e780022
:105380008100ea000c00e80045022000898242000a
:105390000b4278008801780042002000adfd070034
:1053a0008006e900180ce800160037001b002000fa
:1053b0000a0890000000e00001003c008005eb00be
:1053c000491090001004e00001003a007efc070044
:1053d000080178008b0078007afe3700100020006a
:1053e000000c7800cd30220006003700034e780014
:1053f0000040eb001046980020002000000c7800d0
:105400008c0678000d0078004f0778004f06be002c
:105410004f05be004f04be00cf00b10000000600e3
:1054200080007800010178003104e000fdff3a00bf
:105430000000510000000600e4874700889fbe007e
:105440008a9fbe008c1f78008e1f780000057800b0
:1054500001077800020678000e00e00001003a0023
:105460006e8757008a0578008b04780089057800dc
:105470003b4478000800fb00d20007000000e00079
:10548000f9ff3a00d0c2b300804f5400030032004d
:1054900000c0e900804f540002003a008904e8008f
:1054a00001003700004478000c0178008e0078007d
:1054b00009007800290007009e8f540001003a007f
:1054c0000a0f78009e0f550003003a00e00f5000cd
:1054d000e08f58000f003a00b2c2b300824f540070
:1054e00004003a00e00f5000e08f580015003d0026
:1054f00008003700d2c2b300824f540011003a00b6
:105500000200200003002800820f5000838f580003
:105510000a00360020022000c0428800f0ff2f0061
:10552000f1ff2700d2c2b300824f540005003a00b9
:105530000000200001002800020037006000100079
:10554000e08018004f0778004f0678004f05be0036
:105550004f04be004f00b10000000600ee87470078
:10556000889fbe008a9fbe008c9fbe008e1f780061
:10557000f0b79f00010678008205780000047800eb
:10558000080578000a047800b84678000d00fb0092
:105590008c0007000000e000f9ff3a00d0c2b30021
:1055a00080cf56000300320000c0e90080cf5600d3
:1055b00002003a000a05e800010037008046780042
:1055c0000b00e00005003500e18f550003003200bc
:1055d00040022000808f5500060034006044b8006f
:1055e0000c00e000700032007fb09700000e7800e1
:1055f0006d0037000b00e0000e003200f08f550008
:105600001a003a0000c3b3009a4f100017003a0086
:105610001a40900081c7b300814f50000300320050
:1056200081c5b300814f500010003a000a85e800a0
:105630000e003700ab00200000c3b3009a4f1000eb
:105640000a003a001a40900081c7b300814f500011
:10565000040032008b00200081c5b300814f500050
